:020000040000FA
:10000000680100206D0200008102000083020000F0
:10001000850200008502000085020000000000004B
:100020000000000000000000000000008502000049
:10003000850200000000000085020000850200002B
:10004000850200000904000085020000850200000E
:100050008502000085020000850200008502000084
:100060008502000085020000850200008502000074
:100070008502000085020000850200008502000064
:10008000850200008502000085020000ED0C0000E2
:100090008502000085020000850200008502000044
:1000A0008502000085020000850200008502000034
:1000B0008502000085020000850200008502000024
:1000C0008502000085020000850200008502000014
:1000D0008502000085020000850200008502000004
:1000E0008502000000000000000000008502000002
:1000F00085020000850200008502000085020000E4
:1001000085020000850200008502000085020000D3
:1001100000000000000000008502000085020000D1
:1001200085020000850200008502000085020000B3
:1001300085020000850200008502000085020000A3
:1001400000000000000000000000000000000000AF
:100150008502000085020000850200008502000083
:10016000000000000000000000000000000000008F
:10017000000000000000000000000000000000007F
:10018000000000000000000000000000000000006F
:10019000000000000000000000000000000000005F
:1001A000000000000000000000000000000000004F
:1001B0008502000085020000850200008502000023
:1001C0008502000085020000850200008502000013
:1001D0008502000085020000850200008502000003
:1001E00085020000850200008502000085020000F3
:1001F00085020000850200008502000085020000E3
:100200008502000085020000850200000000000059
:1002100085020000850200008502000085020000C2
:1002200085020000850200008502000085020000B2
:1002300085020000850200008502000085020000A2
:100240008502000085020000850200008502000092
:100250008502000085020000850200008502000082
:100260008502000085020000850200004EF68850DD
:10027000CEF20000016841F47001016000F004B8A2
:10028000FEE7FEE7FEE7000000F002F800F03CF8B1
:100290000AA090E8000C82448344AAF10107DA45E1
:1002A00001D100F031F8AFF2090EBAE80F0013F0F7
:1002B000010F18BFFB1A43F001031847500E00004E
:1002C000700E0000103A24BF78C878C1FAD85207DF
:1002D00024BF30C830C144BF04680C6070470000C0
:1002E0000023002400250026103A28BF78C1FBD83F
:1002F000520728BF30C148BF0B6070471FB500F0E0
:1003000097FD1FBD10B510BD00F03AF81146FFF77C
:10031000F5FF00F06FFD00F058F803B4FFF7F2FFAF
:1003200003BC00F059F80000EFF3108072B670477C
:10033000EFF310807047EFF3108062B6704730BF64
:10034000704780F311887047EFF311807047000009
:100350000138FDD17047000002480349014A034BB0
:10036000704700006800002068010020680000203D
:100370007047704770470000004870470800002031
:100380007546FFF7F9FFAE4605006946534620F073
:100390000700854618B020B5FFF7DEFFBDE8204016
:1003A0004FF000064FF000074FF000084FF0000B31
:1003B00021F00701AC46ACE8C009ACE8C009ACE8E4
:1003C000C009ACE8C0098D4670470446AFF3008011
:1003D0002046FFF7A2FF000001491820ABBEFEE750
:1003E00026000200704770B505460E461446314699
:1003F000284600F037FA03E014F8010B00F09CFAED
:1004000020780028F8D170BD10B502211C4800F0FA
:100410003FF9022801D1012000E0002050BB19481B
:100420000078401C1749087008460078012814DB42
:1004300008460078082810DC13480078401012495C
:10044000087001210E4800F023F9012805D10E485B
:10045000007840F080000C4908700A4800780B28AA
:1004600008DB09480078094948700120087000201D
:10047000044908700221024800F023F810BD000072
:100480000050004002000020010000200300002076
:1004900002F001031BB1D0F800340B4302E0D0F8A6
:1004A00000348B43C0F8003402F002031BB1D0F8D3
:1004B00020340B4302E0D0F820348B43C0F82034C2
:1004C0007047C0F81C147047D0F810240A43C0F8D5
:1004D0001024704702F001031BB1D0F808340B431D
:1004E00002E0D0F808348B43C0F8083402F002036D
:1004F0001BB1D0F804340B4302E0D0F804348B4332
:10050000C0F8043402F004031BB1D0F80C340B43E0
:1005100002E0D0F80C348B43C0F80C3402F4803382
:1005200023B1D0F8383543F0010303E0D0F8383573
:1005300023F00103C0F838357047F0B5002416E009
:100540000125A5400D4085B1D0F8C45F67000326A2
:10055000BE40B543C0F8C45FD0F8C45F6700C2F3C3
:100560004116BE403543C0F8C45F651CECB2082C90
:10057000E6DB02F001051DB1D0F800550D4302E0A5
:10058000D0F800558D43C0F8005502F002051DB1AA
:10059000D0F804550D4302E0D0F804558D43C0F85F
:1005A000045502F004051DB1D0F808550D4302E0D2
:1005B000D0F808558D43C0F8085502F008051DB164
:1005C000D0F818550D4302E0D0F818558D43C0F807
:1005D000185502F010051DB1D0F83C550D4302E04E
:1005E000D0F83C558D43C0F83C5503F001051DB1D2
:1005F000D0F80C550D4302E0D0F80C558D43C0F8EF
:100600000C5503F002051DB1D0F810550D4302E062
:10061000D0F810558D43C0F8105503F004051DB1F6
:10062000D0F814550D4302E0D0F814558D43C0F8AE
:10063000145503F008051DB1D0F81C550D4302E018
:10064000D0F81C558D43C0F81C5503F400751DB13E
:10065000D0F844550D4302E0D0F844558D43C0F81E
:10066000445503F440751DB1D0F840550D4302E0E8
:10067000D0F840558D43C0F840551BB9D0F82855E7
:100680000D4302E0D0F828558D43C0F82855F0BD41
:100690000246002000EB81001058704730B5044638
:1006A0000D46002229462046FFF7F2FE08230122CC
:1006B00029462046FFF741FF30BD30B504460D46C0
:1006C0000823012229462046FFF737FF0122294649
:1006D0002046FFF7DDFE30BD002303EB8103C2504F
:1006E00070470000042806D11949096841F4803197
:1006F000174A11602BE0052806D11549096841F415
:100700000031134A116022E0062806D11049096819
:1007100041F480210E4A116019E00F2808D14FF0F2
:10072000E021096941F002014FF0E02211610EE081
:1007300010280CD3A0F1100101F01F0201219140FB
:10074000A0F110025209034B53F8222011607047A8
:1007500024ED00E0F80E000010B5FFF7ECFD08B145
:10076000012010BD0020FCE710B5164800F0AAFAE1
:100770001448401D00F0A6FA40211348FFF79DFFE2
:1007800001211248FFF799FF08211048FFF795FF54
:100790004FF4FA7000F01EFB302000F0ABF802209E
:1007A00000F0A8F80C2000F0A5F8062000F0A2F850
:1007B000012000F09FF8802000F09CF80A2000F053
:1007C000FAFA10BD020800F000600040007002401C
:1007D0002DE9FC478046894615461E4600242F46D3
:1007E00000BF0A20B7FBF0F7601CC4B2002FF8D19D
:1007F000A64208DD00BF601CC4B22020311B0DF8EA
:100800000100B442F7D100200DF804002021601E41
:10081000C0B204460DF8001000BF0A20B5FBF0F18D
:1008200000FB115030302146621ED4B20DF8010099
:100830000A20B5FBF0F5002DEFD16A464946404647
:10084000FFF7D1FDBDE8FC872DE9F04104460D46D8
:1008500016461F463B46324621462846FFF7B8FF5C
:10086000BDE8F08170B505460E4606F18000C4B2C1
:1008700035B1012D05D0022D07D0032D0DD108E093
:100880000CE004F11000C4B208E004F10800C4B2A6
:1008900004E004F11800C4B200E000BF00BF20462D
:1008A00000F028F870BD000070B5054600241BE07C
:1008B00005FA04F000F0800028B1FF2208210C485E
:1008C000FFF70AFF04E0002208210948FFF704FFB0
:1008D000002201210648FFF7FFFEFF220121044804
:1008E000FFF7FAFE601CC4B2082CE1DB70BD00000B
:1008F0000070024010B50446FF2240210D48FFF76A
:10090000EBFEF820FFF7D0FF04F0F000FFF7CCFF7C
:10091000F02101EA0410FFF7C7FF4B2000F05AFA5C
:10092000002240210348FFF7D7FE4B2000F052FA87
:1009300010BD00000060004010B50446FF224021B9
:100940000D48FFF7C9FEFA20FFF7AEFF04F0F000F4
:10095000FFF7AAFFF02101EA0410FFF7A5FF4B20E3
:1009600000F038FA002240210348FFF7B5FE4B2083
:1009700000F030FA10BD00000060004010B50B48D8
:1009800000F0A0F90A480B490860081D006840F013
:100990000100091D086071210748FFF78EFE002243
:1009A00071210548FFF798FE10BD0000050800F012
:1009B0004B434F4C205502400050024010B50D48AB
:1009C00000F080F903210C48FFF768FE00220321A4
:1009D0000948FFF75DFD002202210748FFF77AFD75
:1009E00002210548FFF770FD1120FFF77BFEFFF79E
:1009F000B3FE10BD010800F00050004010B50248E1
:100A000000F0D0F810BD00004005C00010B50D4842
:100A100000F058F922210C4800F088F90B4AFF2118
:100A2000094800F0C0F92320FFF75CFE01210648C9
:100A300000F0B5F9FFF790FEFF21034800F0A6F99A
:100A400010BD0000000400F00000034080F0FA0236
:100A500070B44B4D2A6E296F11F0004F14BF01F096
:100A6000700002F03000202808BF464818D005DC8E
:100A700088B1102808BF444812D009E0302808BFC8
:100A800047F230500CD0702808BF4FF4004007D018
:100A900070BC002070477C203C4B00EA12101858B4
:100AA0004FF0FF3311F0004F02D011F4006F06D069
:100AB00001F0004C02F400645CEA040C36D1D5F875
:100AC00060C1D5F8644104F01F06761CC4F3042409
:100AD000641C16FB04F46400B0FBF4F0CCF30904CE
:100AE0004443CCF3892C00FB0CF0D5F810C004EB88
:100AF000902042F480020CF4704CBCF5804F08BF8B
:100B0000234B13D009DCBCF5005F08BF214B0DD08F
:100B1000BCF5405F08BF204B08E0BCF5E04F08BFC4
:100B20001E4B03D0BCF5104F08BF1D4B12F4800FB5
:100B300021D011F0004F19D011F0804F09D011F4DD
:100B4000006F0CD001F0004C02F400625CEA02027B
:100B500005D0C1F3C551491CB0FBF1F00BE04000DA
:100B6000C1F38651491CB0FBF1F004E0C2F3C3515C
:100B7000491CB0FBF1F0834238BF184670BC704787
:100B800000E00F4000093D000024F400500F000079
:100B9000005A620200B4C40480F0FA0240787D0179
:100BA000002D3101434B30B4196E1A6F21F48001CE
:100BB00041F4006142F4006419661C6721EA0002F6
:100BC00012F0010F14D060F0010211409A159A65DD
:100BD0001966D3F850C0D2021CF4807F08D1521E8F
:100BE00004BF30BC7047D3F850C01CF4807FF6D0EF
:100BF00021F4FE6100F4FE621143DFF8BCC024F072
:100C0000700222F0004200EA0C0C4CEA020200F0F2
:100C1000080C42EACC0219661A6700F4005C21F461
:100C2000005122F400524CEA01014CEA02024FF05A
:100C3000400CC3F858C012F0004F08BF19661A677D
:100C400018BF196621F00101DFF870C021F0F861CA
:100C500000EA0C0C4CEA010122F0FC5200F0FC5CB2
:100C60004CEA020210F0804F08BF22F0804209D007
:100C7000DFF84CC022F4800200EA0C0C41F4800141
:100C80004CEA020210F4006F08BF4FF400400AD192
:100C9000D3F868C11CF0010F01D1401EF8D121F436
:100CA000006122F4006219661A6730BC1020FFF759
:100CB0004FBB000000E00F40300000800100C00783
:100CC00000004040C0F307230749C0B2194401F0B7
:100CD0007043C1F3130143EA411141EA800040F03F
:100CE000007001220260704700E60F4010B501213C
:100CF0000B4800F052F80B480078C04309490870CF
:100D00000846007828B1012211460748FFF7E4FCA5
:100D100004E0002201210448FFF7DEFC10BD0000C2
:100D2000000003400000002000500240C26840F272
:100D300001139A43C2600A0E0260114A1268114BF5
:100D40001A40114B9A4211D1CAB201F4702342EAFF
:100D5000131242F40072426001F47002C1F30723DF
:100D600043EA122242F40072826008E0CAB242F4FE
:100D700000724260C1F3072242F400728260704741
:100D800000E00F400000FF7000000A10C26840F24F
:100D900001130B401A43C260704741627047826979
:100DA0000A4382617047CBB203B1826201F47F4390
:100DB00003B1C262704770B50446FFF749FE4FF4B5
:100DC0007A61B0FBF1F000FB04F52846FFF7C0FAAA
:100DD00070BD000070B50446FFF73AFE0449B0FB51
:100DE000F1F000FB04F52846FFF7B2FA70BD0000F1
:100DF00000093D000024FFF701FEFFF7BFFDFFF7EC
:100E000005FEFFF7B1FCFFF7D9FD0DE02246641C9B
:100E10000A2300210846FFF717FD044842780A23F9
:100E200001210020FFF710FDF0E700000300002083
:100E30004FF04070E1EE100A70470000000700001C
:100E40000006000000050000000400000003000090
:100E5000000200000001000000000000000000008F
:100E600018ED00E01CED00E020ED00E000E400E003
:100E700004E400E008E400E00CE400E010E400E03A
:100E800014E400E018E400E01CE400E020E400E0EA
:100E900024E400E028E400E02CE400E030E400E09A
:100EA00034E400E038E400E03CE400E040E400E04A
:100EB00044E400E048E400E04CE400E050E400E0FA
:100EC00054E400E058E400E05CE400E060E400E0AA
:100ED00064E400E068E400E06CE400E070E400E05A
:100EE00074E400E078E400E07CE400E080E400E00A
:100EF00084E400E088E400E000E100E004E100E0D8
:100F000008E100E00CE100E010E100E080E100E039
:100F100084E100E088E100E08CE100E090E100E0A5
:100F200000E200E004E200E008E200E00CE200E0A1
:100F300010E200E080E200E084E200E088E200E00D
:100F40008CE200E090E200E000D0121300389C1C1C
:100F500040420F0000201C0080841E0000802500FD
:100F6000999E36000040380000093D0000803E0098
:100F700000004B00404B4C0000204E00808D5B0079
:100F800000C05D000080700000127A0000007D004B
:100F900080969800001BB7000080BB00C0E8CE0020
:100FA000647ADA000024F4000000FA0080A812013C
:100FB000002D310100366E0140787D0140000000B7
:100FC000000000003E00080000000000A00000003B
:100FD0000200000034540100000000002B700600E5
:100FE00000000000280000000000000027000100B1
:100FF0000000000020000000000000005000000081
:10100000020000001AAC0000000000001794090064
:101010000000000016980500000000001400000009
:10102000000000001380080000000000A000000085
:101030000800000010000000000000002800000070
:1010400002000000400000000400000060000000FA
:10105000000000005D000C000000000050000000D7
:10106000000000004E0002000000000041AC010042
:10107000000000003C000000000000003A80090071
:101080000000000030000000000000002800000008
:10109000000000002700010000000000236006009F
:1010A0000000000021600800000000001E00000099
:1010B000000000001DC004000000000050000000FF
:1010C00002000000180000000000000014000000F2
:1010D0000000000060000000040000000024F40094
:1010E00030003000005A62029100910000879303A3
:1010F000D200D20000B4C4041301130100E1F505CD
:1011000054015401000E2707950195012C11000090
:101110000000002008000000C4020000341100009C
:101120000800002060010000E00200000000000054
:0411300000000000BB
:04000005000002896C
:00000001FF
