:020000040000FA
:10000000800100206D0200008102000083020000D8
:10001000850200008502000085020000000000004B
:100020000000000000000000000000008502000049
:10003000850200000000000085020000850200002B
:10004000850200000904000085020000850200000E
:100050008502000085020000850200008502000084
:100060008502000085020000850200008502000074
:100070008502000085020000850200008502000064
:10008000850200008502000085020000650F000067
:100090008502000085020000850200008502000044
:1000A0008502000085020000850200008502000034
:1000B000850200008502000085020000FD040000AA
:1000C0008502000085020000850200008502000014
:1000D0008502000085020000850200008502000004
:1000E0008502000000000000000000008502000002
:1000F00085020000850200008502000085020000E4
:1001000085020000850200008502000085020000D3
:1001100000000000000000008502000085020000D1
:1001200085020000850200008502000085020000B3
:1001300085020000850200008502000085020000A3
:1001400000000000000000000000000000000000AF
:100150008502000085020000850200008502000083
:10016000000000000000000000000000000000008F
:10017000000000000000000000000000000000007F
:10018000000000000000000000000000000000006F
:10019000000000000000000000000000000000005F
:1001A000000000000000000000000000000000004F
:1001B0008502000085020000850200008502000023
:1001C0008502000085020000850200008502000013
:1001D0008502000085020000850200008502000003
:1001E00085020000850200008502000085020000F3
:1001F00085020000850200008502000085020000E3
:100200008502000085020000850200000000000059
:1002100085020000850200008502000085020000C2
:1002200085020000850200008502000085020000B2
:1002300085020000850200008502000085020000A2
:100240008502000085020000850200008502000092
:100250008502000085020000850200008502000082
:100260008502000085020000850200004EF68850DD
:10027000CEF20000016841F47001016000F004B8A2
:10028000FEE7FEE7FEE7000000F002F800F03CF8B1
:100290000AA090E8000C82448344AAF10107DA45E1
:1002A00001D100F031F8AFF2090EBAE80F0013F0F7
:1002B000010F18BFFB1A43F001031847BC100000E0
:1002C000DC100000103A24BF78C878C1FAD8520771
:1002D00024BF30C830C144BF04680C6070470000C0
:1002E0000023002400250026103A28BF78C1FBD83F
:1002F000520728BF30C148BF0B6070471FB500F0E0
:10030000CDFE1FBD10B510BD00F03AF81146FFF745
:10031000F5FF00F0ABFE00F058F803B4FFF7F2FF72
:1003200003BC00F059F800000138FDD1704700000F
:10033000EFF3108072B67047EFF310807047EFF361
:10034000108062B6704730BF704780F311887047E5
:10035000EFF311807047000002480349014A034B44
:1003600070470000800000208001002080000020F5
:100370007047704770470000004870471C0000201D
:100380007546FFF7F9FFAE4605006946534620F073
:100390000700854618B020B5FFF7DEFFBDE8204016
:1003A0004FF000064FF000074FF000084FF0000B31
:1003B00021F00701AC46ACE8C009ACE8C009ACE8E4
:1003C000C009ACE8C0098D4670470446AFF3008011
:1003D0002046FFF7A2FF000001491820ABBEFEE750
:1003E00026000200704770B505460E461446314699
:1003F000284600F08FFB03E014F8010B00F0FEFB31
:1004000020780028F8D170BD10B50221294800F0ED
:100410009CF9022801D1012000E00020002844D1ED
:1004200025480078401C24490870084600780128B7
:1004300014DB08460078082810DC204800784010BB
:100440001E49087001211B4800F07FF9012805D1E1
:100450001A48007840F08000184908701648007863
:100460000B2822DB00201449087015480078022868
:1004700004D1002012490870104908701048007813
:1004800001280BD10D4800780E49487001200870F2
:1004900000200A49087002200949087007480078BE
:1004A000E02802D10120064908700221014800F02D
:1004B00045F810BD0050004001000020020000205F
:1004C000030000200500002002F001031BB1D0F85A
:1004D00000340B4302E0D0F800348B43C0F8003402
:1004E00002F002031BB1D0F820340B4302E0D0F835
:1004F00020348B43C0F820347047000010B50C48FE
:100500000078C0430A4908700846007828B12022C4
:100510001146084800F03DF904E00022202105487A
:1005200000F037F93F21044800F008F810BD000042
:10053000040000200050024000600240C0F81C147B
:100540007047D0F810240A43C0F81024704702F016
:1005500001031BB1D0F808340B4302E0D0F8083493
:100560008B43C0F8083402F002031BB1D0F8043406
:100570000B4302E0D0F804348B43C0F8043402F09B
:1005800004031BB1D0F80C340B4302E0D0F80C3458
:100590008B43C0F80C3402F4803323B1D0F83835E3
:1005A00043F0010303E0D0F8383523F00103C0F82D
:1005B0003835704710B50D4800F08EFC3F210C48CF
:1005C00000F0C9F802223F210948FFF77DFF002211
:1005D0003F210748FFF7BBFF3F210548FFF7B1FF69
:1005E0002F2000F0FBF800F033F910BD060800F0F2
:1005F00000600240F0B5002416E00125A5400D4042
:1006000085B1D0F8C45F67000326BE40B543C0F88B
:10061000C45FD0F8C45F6700C2F34116BE403543E3
:10062000C0F8C45F651CECB2082CE6DB02F00105E3
:100630001DB1D0F800550D4302E0D0F800558D43B0
:10064000C0F8005502F002051DB1D0F804550D4365
:1006500002E0D0F804558D43C0F8045502F00405BB
:100660001DB1D0F808550D4302E0D0F808558D4370
:10067000C0F8085502F008051DB1D0F818550D4313
:1006800002E0D0F818558D43C0F8185502F0100557
:100690001DB1D0F83C550D4302E0D0F83C558D43D8
:1006A000C0F83C5503F001051DB1D0F80C550D43C1
:1006B00002E0D0F80C558D43C0F80C5503F002054C
:1006C0001DB1D0F810550D4302E0D0F810558D4300
:1006D000C0F8105503F004051DB1D0F814550D43B2
:1006E00002E0D0F814558D43C0F8145503F0080506
:1006F0001DB1D0F81C550D4302E0D0F81C558D43B8
:10070000C0F81C5503F400751DB1D0F844550D43D5
:1007100002E0D0F844558D43C0F8445503F44075C9
:100720001DB1D0F840550D4302E0D0F840558D433F
:10073000C0F840551BB9D0F828550D4302E0D0F859
:1007400028558D43C0F82855F0BD0246002000EB27
:1007500081001058704730B504460D4600222946E6
:100760002046FFF7B1FE0823012229462046FFF765
:1007700041FF30BD30B504460D460823012229460D
:100780002046FFF737FF012229462046FFF79CFE4F
:1007900030BD002303EB8103C250704710B50B48F6
:1007A00000F09AFB0A480B490860081D006840F0F9
:1007B0000100091D086071210748FFF7DBFF0022D7
:1007C00071210548FFF7E5FF10BD0000050800F0A6
:1007D0004B434F4C2055024000500240042806D1A4
:1007E0001949096841F48031174A11602BE0052846
:1007F00006D11549096841F40031134A116022E01D
:10080000062806D11049096841F480210E4A11607A
:1008100019E00F2808D14FF0E021096941F00201E9
:100820004FF0E02211610EE010280CD3A0F110016E
:1008300001F01F0201219140A0F110025209034B67
:1008400053F822201160704724ED00E0641100008D
:1008500010B5FFF774FD08B1012010BD0020FCE7C2
:1008600000212F480078012858D100202C4A107010
:1008700010464078E6283AD014DCD62835D008DC7B
:10088000942824D0B4283CD0CC283ED0D22840D1C3
:1008900031E0D82821D0E02835D0E22837D0E4282C
:1008A00037D12AE0F4282AD008DCE82821D0EA2829
:1008B00015D0EE2809D0F2282BD114E0F6280AD062
:1008C000F82806D0FA2824D10BE04E2123E02F216E
:1008D00021E02A211FE02D211DE037211BE03821D6
:1008E00019E0392117E02B2115E0342113E03521DF
:1008F00011E036210FE031210DE032210BE03321F0
:1009000009E0452107E0302105E0422103E02E21E6
:1009100001E0002100BF00BF084670470020FCE74F
:100920000500002010B5FFF79BFF1F491F4A1278F2
:10093000885408461D490978405C20B11B4800785E
:10094000401C1A49087019480078401E1649085C76
:1009500042280FD108E0002114480078401EC0B2A0
:10096000124A1070104A1154104800780028F2D131
:1009700000F072F80D48007810280FDB08E0002125
:100980000A480078401EC0B2084A1070064A115446
:10099000064800780028F2D100F05EF8024A0121F2
:1009A000002000F0FFF810BD0C000020080000201F
:1009B00010B50D4800F090FA03210C48FFF7CBFE6C
:1009C000022203210948FFF77FFD00220221074888
:1009D000FFF7BDFD02210548FFF7B3FD1120FFF72A
:1009E000FDFEFFF735FF10BD010800F0005000408C
:1009F00010B5164800F070FA1448401D00F06CFA6B
:100A000040211348FFF7B6FE01211248FFF7B2FE5E
:100A100008211048FFF7AEFE4FF4FA7000F016FB05
:100A2000302000F0C9F8022000F0C6F80C2000F0D9
:100A3000C3F8062000F0C0F8012000F0BDF88020C7
:100A400000F0BAF80A2000F0F2FA10BD020800F037
:100A5000006000400070024010B5022000F0ACF8C9
:100A60000C2000F0A9F8062000F0A6F8012000F004
:100A7000A3F8802000F0A0F80A2000F0D8FA10BDFA
:100A80002DE9FC478046894615461E4600242F4620
:100A900000BF0A20B7FBF0F7601CC4B2002FF8D1EA
:100AA000A64208DD00BF601CC4B22020311B0DF837
:100AB0000100B442F7D100200DF804002021601E8F
:100AC000C0B204460DF8001000BF0A20B5FBF0F1DB
:100AD00000FB115030302146621ED4B20DF80100E7
:100AE0000A20B5FBF0F5002DEFD16A464946404695
:100AF000FFF779FCBDE8FC872DE9F04104460D467F
:100B000016461F463B46324621462846FFF7B8FFA9
:100B1000BDE8F08170B505460E4606F18000C4B20E
:100B200035B1012D05D0022D07D0032D0DD108E0E0
:100B30000CE004F11000C4B208E004F10800C4B2F3
:100B400004E004F11800C4B200E000BF00BF20467A
:100B500000F032F870BD000070B5054600241BE0BF
:100B600005FA04F000F0800028B1FF2208210C48AB
:100B7000FFF70FFE04E0002208210948FFF709FEF5
:100B8000002201210648FFF704FEFF22012104484C
:100B9000FFF7FFFD601CC4B2082CE1DB70BD000054
:100BA0000070024070B504460D4616463246214696
:100BB0002846FFF718FC70BD10B50446FF224021FF
:100BC0000D48FFF7E6FDF820FFF7C6FF04F0F00040
:100BD000FFF7C2FFF02101EA0410FFF7BDFF4B2031
:100BE00000F034FA002240210348FFF7D2FD4B20E9
:100BF00000F02CFA10BD00000060004010B5044663
:100C0000FF2240210D48FFF7C4FDFA20FFF7A4FFA3
:100C100004F0F000FFF7A0FFF02101EA0410FFF755
:100C20009BFF4B2000F012FA002240210348FFF7FF
:100C3000B0FD4B2000F00AFA10BD0000006000403B
:100C4000F0B55048036E026F02F0004010B102F0A0
:100C5000700001E003F03000202811D003DC38B12F
:100C6000102815D10AE030280CD0702810D10CE0E3
:100C70004548C3F3841750F827100BE0434909E0B7
:100C8000434907E047F2305104E04FF4004101E0EE
:100C90000020F0BD00BF4FF0FF3402F0004010B163
:100CA00002F4006028B102F0004090BB03F4006041
:100CB00078BB384805683348D0F8646106F01F00F7
:100CC000401CC6F304277F1C10FB07F04000B1FB5B
:100CD000F0F1C5F309004843C5F389274F4300EB02
:100CE000972143F480032748006900F47040B0F571
:100CF000804F13D006DCB0F5005F0BD0B0F5405F3D
:100D000012D109E0B0F5E04F0AD0B0F5104F0BD189
:100D100008E00BE0204C08E0204C06E0204C04E00A
:100D2000204C02E0204C00E000BF00BF03F4800034
:100D300018B302F00040D8B102F0804090B102F048
:100D4000004010B102F4006028B102F0004048B940
:100D500003F4006030B94F00C2F38650401CB7FB6B
:100D6000F0F10AE0C2F3C550401CB1FBF0F104E021
:100D7000C3F3C350401CB1FBF0F18C4200D22146BA
:100D8000084686E700E00F40B41100000024F4009C
:100D900000093D0060E10F4000B4C40480F0FA0295
:100DA000005A620240787D01002D31012DE9F041A9
:100DB00006464448046E056F44F4006424F480043D
:100DC00045F400650466056704F00100D8B106F03B
:100DD0000100C0B966F0010004404FF48070394949
:100DE0008865084604664FF4002702E07F1E07B9B5
:100DF00005E03448006D00F480700028F6D000BF94
:100E00000FB9BDE8F08124F4FE6406F4FE600443EB
:100E10002D4805402C49A13106EA0100054306F0A2
:100E2000080045EAC00527480466056724F4005415
:100E300006F40050044325F4005506F40050054321
:100E400040202049886505F0004018B10846056734
:100E5000046602E01B48046605671C480440C14361
:100E600006EA0100044325F0FC5506F0FC5005435A
:100E700006F0804040B144F4800425F48005144914
:100E800006EA0100054301E025F0804506F4006014
:100E900080B94FF4004706E00E48006800F00100FA
:100EA00000B102E07F1E002FF6D100BF24F40064E1
:100EB00025F400650348046605671020FFF734FA3F
:100EC00000BF9EE700E00F408FFFFF7FFEFF3FF86F
:100ED0000000404068E10F4010B50121C0F3072237
:100EE000094B1A4402F0704242F00072C0F307232B
:100EF000054C2344C3F3130342EA4312C3B242EA4C
:100F00008302116010BD000000E60F4010B50248DA
:100F1000FFF74CFF10BD00004005C00010B50F48A2
:100F2000FFF7DAFF22210E4800F03CF8FFF788FEB9
:100F30000321B0FBF1F42246FF21094800F06FF8CD
:100F40002320FFF74BFC0121054800F064F8FFF770
:100F50007FFCFF21024800F055F810BD000400F0AE
:100F60000000034010B501210B4800F052F80B4877
:100F70000078C043094908700846007828B101226A
:100F800011460748FFF705FC04E000220121044850
:100F9000FFF7FFFB10BD0000000003400000002031
:100FA00000500240C26840F201139A43C2600A0E28
:100FB0000260114A1268114B1A40114B9A4211D12A
:100FC000CAB201F4702342EA131242F40072426082
:100FD00001F47002C1F3072343EA122242F40072C3
:100FE000826008E0CAB242F400724260C1F3072294
:100FF00042F400728260704700E00F400000FF7012
:1010000000000A10C26840F201130B401A43C2608C
:1010100070474162704782690A4382617047CBB270
:1010200003B1826201F47F4303B1C262704770B5BD
:101030000446FFF705FE4FF47A61B0FBF1F000FBC8
:1010400004F52846FFF770F970BD000070B504463E
:10105000FFF7F6FD0449B0FBF1F000FB04F528466C
:10106000FFF762F970BD000000093D000024FFF7A2
:101070004DFFFFF793FBFFF751FFFFF7B9FCFFF7B9
:1010800097FCFFF797FA08E02246641C0A23002128
:101090000846FFF731FDFFF745FCF5E74FF04070DC
:1010A000E1EE100A70470000000700000006000093
:1010B0000005000000040000000300000002000022
:1010C00000010000000000000000000018ED00E03A
:1010D0001CED00E020ED00E000E400E004E400E0AE
:1010E00008E400E00CE400E010E400E014E400E0B8
:1010F00018E400E01CE400E020E400E024E400E068
:1011000028E400E02CE400E030E400E034E400E017
:1011100038E400E03CE400E040E400E044E400E0C7
:1011200048E400E04CE400E050E400E054E400E077
:1011300058E400E05CE400E060E400E064E400E027
:1011400068E400E06CE400E070E400E074E400E0D7
:1011500078E400E07CE400E080E400E084E400E087
:1011600088E400E000E100E004E100E008E100E0E4
:101170000CE100E010E100E080E100E084E100E04B
:1011800088E100E08CE100E090E100E000E200E0B6
:1011900004E200E008E200E00CE200E010E200E01F
:1011A00080E200E084E200E088E200E08CE200E01F
:1011B00090E200E040420F0000201C0080841E00EE
:1011C00000802500999E36000040380000093D004F
:1011D00000803E0000004B00404B4C0000204E00C1
:1011E000808D5B0000C05D000080700000127A00FE
:1011F00000007D0080969800001BB7000080BB00B7
:10120000C0E8CE00647ADA000024F4000000FA009E
:1012100080A81201002D310100366E0140787D0159
:1012200040000000000000003E0008000000000038
:10123000A000000002000000345401000000000083
:101240002B700600000000002800000000000000D5
:101250002700010000000000200000000000000046
:1012600050000000020000001AAC00000000000066
:101270001794090000000000169805000000000007
:1012800014000000000000001380080000000000AF
:10129000A000000008000000100000000000000096
:1012A00028000000020000004000000004000000D0
:1012B00060000000000000005D000C000000000065
:1012C00050000000000000004E000200000000007E
:1012D00041AC0100000000003C00000000000000E4
:1012E0003A8009000000000030000000000000000B
:1012F000280000000000000027000100000000009E
:1013000023600600000000002160080000000000CB
:101310001E000000000000001DC0040000000000CE
:101320005000000002000000180000000000000053
:101330001400000000000000600000000400000035
:101340000024F40030003000005A62029100910045
:1013500000879303D200D20000B4C4041301130128
:1013600000E1F50554015401000E27079501950190
:1013700000D0121300389C1C9813000000000020BD
:101380000C000000C4020000A41300000C000020A8
:1013900074010000E00200000000000000000000F6
:0413A0000000000049
:04000005000002896C
:00000001FF
