:020000040000FA
:10000000600100206D0200008102000083020000F8
:10001000850200008502000085020000000000004B
:100020000000000000000000000000008502000049
:10003000850200000000000085020000850200002B
:100040008502000085020000850200008502000094
:100050008502000085020000850200008502000084
:100060008502000085020000850200008502000074
:100070008502000085020000850200008502000064
:100080008502000085020000850200008502000054
:100090008502000085020000850200008502000044
:1000A0008502000085020000850200008502000034
:1000B0008502000085020000850200008502000024
:1000C0008502000085020000850200008502000014
:1000D0008502000085020000850200008502000004
:1000E0008502000000000000000000008502000002
:1000F00085020000850200008502000085020000E4
:1001000085020000850200008502000085020000D3
:1001100000000000000000008502000085020000D1
:1001200085020000850200008502000085020000B3
:1001300085020000850200008502000085020000A3
:1001400000000000000000000000000000000000AF
:100150008502000085020000850200008502000083
:10016000000000000000000000000000000000008F
:10017000000000000000000000000000000000007F
:10018000000000000000000000000000000000006F
:10019000000000000000000000000000000000005F
:1001A000000000000000000000000000000000004F
:1001B0008502000085020000850200008502000023
:1001C0008502000085020000850200008502000013
:1001D0008502000085020000850200008502000003
:1001E00085020000850200008502000085020000F3
:1001F00085020000850200008502000085020000E3
:100200008502000085020000850200000000000059
:1002100085020000850200008502000085020000C2
:1002200085020000850200008502000085020000B2
:1002300085020000850200008502000085020000A2
:100240008502000085020000850200008502000092
:100250008502000085020000850200008502000082
:100260008502000085020000850200004EF68850DD
:10027000CEF20000016841F47001016000F004B8A2
:10028000FEE7FEE7FEE7000000F002F800F02EF8BF
:100290000AA090E8000C82448344AAF10107DA45E1
:1002A00001D100F023F8AFF2090EBAE80F0013F005
:1002B000010F18BFFB1A43F001031847D0070000D5
:1002C000E00700000023002400250026103A28BF84
:1002D00078C1FBD8520728BF30C148BF0B607047B8
:1002E0001FB500F0EBFA1FBD10B510BD00F021F8EE
:1002F0001146FFF7F5FF00F0C1FA00F03FF803B434
:10030000FFF7F2FF03BC00F043F800000138FDD115
:100310007047000002480349014A034B7047000040
:1003200060000020600100206000002070477047DE
:100330007047754600F028F8AE46050069465346FA
:1003400020F00700854618B020B5FFF7E3FFBDE8B1
:1003500020404FF000064FF000074FF000084FF02C
:10036000000B21F00701AC46ACE8C009ACE8C009BD
:10037000ACE8C009ACE8C0098D4670470446AFF34D
:1003800000802046FFF7BBFF0048704700000020B8
:1003900001491820ABBEFEE7260002007047D0F8E6
:1003A000003412F0010F14BF0B438B43C0F800342C
:1003B00012F0020FD0F8202414BF114322EA0101E9
:1003C000C0F8201470472DE9F00701274FF0000C0A
:1003D0000326C2F3411800F6C47407FA0CF50D4267
:1003E00010D0D0F8C49F4FEA4C0506FA05FA29EA66
:1003F0000A09C4F80090D4F8009008FA05F549EA13
:10040000050525600CF1010C0CF0FF0CBCF1080F88
:10041000E3D3D0F800C512F0010F14BF4CEA010C71
:100420002CEA010CC0F800C5D0F804C512F0020F88
:1004300014BF4CEA010C2CEA010CC0F804C5D0F83A
:1004400008C512F0040F14BF4CEA010C2CEA010C91
:10045000C0F808C5D0F818C512F0080F14BF4CEA50
:10046000010C2CEA010CC0F818C512F0100FD0F8DE
:100470003C2514BF0A438A43C0F83C25D0F80C251C
:1004800013F0010F14BF0A438A43C0F80C25D0F8BB
:10049000102513F0020F14BF0A438A43C0F8102539
:1004A000D0F8142513F0040F14BF0A438A43C0F890
:1004B0001425D0F81C2513F0080F14BF0A438A43F3
:1004C000C0F81C25D0F8442513F4007F14BF0A435C
:1004D0008A43C0F84425D0F8402513F4407F14BF68
:1004E0000A438A43C0F84025D0F82825002B0CBFCA
:1004F000114322EA0101C0F82815BDE8F007704752
:1005000030B50C46054608230122FFF75CFF214663
:100510002846BDE830400122FFF741BF40F82120C6
:100520007047000010B5084800F058F9074808491E
:100530000860081D006840F00100091D0860712175
:100540000448FFF7DDFF10BD050800F04B434F4C9A
:10055000205502400050024010B5024800F0AEF8AD
:1005600010BD00004005C00170B44B4D2A6E296FCC
:1005700011F0004F14BF01F0700002F0300020288D
:1005800008BF464818D005DC88B1102808BF444889
:1005900012D009E0302808BF47F230500CD0702844
:1005A00008BF4FF4004007D070BC002070477C208B
:1005B0003C4B00EA121018584FF0FF3311F0004F77
:1005C00002D011F4006F06D001F0004C02F4006478
:1005D0005CEA040C36D1D5F860C1D5F8644104F06A
:1005E0001F06761CC4F30424641C16FB04F4640088
:1005F000B0FBF4F0CCF309044443CCF3892C00FBAA
:100600000CF0D5F810C004EB902042F480020CF4FA
:10061000704CBCF5804F08BF234B13D009DCBCF5F0
:10062000005F08BF214B0DD0BCF5405F08BF204BD9
:1006300008E0BCF5E04F08BF1E4B03D0BCF5104FDF
:1006400008BF1D4B12F4800F21D011F0004F19D0BC
:1006500011F0804F09D011F4006F0CD001F0004C64
:1006600002F400625CEA020205D0C1F3C551491CE4
:10067000B0FBF1F00BE04000C1F38651491CB0FB28
:10068000F1F004E0C2F3C351491CB0FBF1F0834226
:1006900038BF184670BC704700E00F4000093D00AD
:1006A0000024F400D0080000005A620200B4C40420
:1006B00080F0FA0240787D01002D3101434B30B4C7
:1006C000196E1A6F21F4800141F4006142F4006454
:1006D00019661C6721EA000212F0010F14D060F0C5
:1006E000010211409A159A651966D3F850C0D202DA
:1006F0001CF4807F08D1521E04BF30BC7047D3F871
:1007000050C01CF4807FF6D021F4FE6100F4FE623C
:100710001143DFF8BCC024F0700222F0004200EA6E
:100720000C0C4CEA020200F0080C42EACC021966FA
:100730001A6700F4005C21F4005122F400524CEAE4
:1007400001014CEA02024FF0400CC3F858C012F00D
:10075000004F08BF19661A6718BF196621F001011A
:10076000DFF870C021F0F86100EA0C0C4CEA0101DE
:1007700022F0FC5200F0FC5C4CEA020210F0804FC8
:1007800008BF22F0804209D0DFF84CC022F480027A
:1007900000EA0C0C41F480014CEA020210F4006FF4
:1007A00008BF4FF400400AD1D3F868C11CF0010F14
:1007B00001D1401EF8D121F4006122F400621966D3
:1007C0001A6730BC1020FFF7A1BD000000E00F4009
:1007D000300000800100C00700004040C0F3072344
:1007E0000749C0B2194401F07043C1F3130143EA51
:1007F000411141EA800040F0007001220260704720
:1008000000E60F4070B50446042C13D9241FFFF7EF
:10081000ABFE4FF47A71B0FBF1F060430321B0FB03
:10082000F1F56D084FF47A70B5FBF0F52846FFF747
:100830006DFD22E0012C06D1002400BF2000A4F1B0
:100840000104FBD119E0022C06D1072400BF2000CF
:10085000A4F10104FBD110E0032C06D10F2400BF4A
:100860002000A4F10104FBD107E0042C05D11724DA
:1008700000BF2000A4F10104FBD170BDFFF76CFEA6
:10088000FFF750FE002271210B48FFF747FE11E0F1
:10089000402211460848FFF741FE44F62060FFF76A
:1008A000B1FF002240210448FFF738FE44F62060E3
:1008B000FFF7A8FFECE70000005002404FF0407047
:1008C000E1EE100A7047000000D0121300389C1CA3
:1008D00040420F0000201C0080841E000080250084
:1008E000999E36000040380000093D0000803E001F
:1008F00000004B00404B4C0000204E00808D5B0000
:1009000000C05D000080700000127A0000007D00D1
:1009100080969800001BB7000080BB00C0E8CE00A6
:10092000647ADA000024F4000000FA0080A81201C2
:10093000002D310100366E0140787D01400000003D
:10094000000000003E00080000000000A0000000C1
:100950000200000034540100000000002B7006006B
:100960000000000028000000000000002700010037
:100970000000000020000000000000005000000007
:10098000020000001AAC00000000000017940900EB
:100990000000000016980500000000001400000090
:1009A000000000001380080000000000A00000000C
:1009B00008000000100000000000000028000000F7
:1009C0000200000040000000040000006000000081
:1009D000000000005D000C0000000000500000005E
:1009E000000000004E0002000000000041AC0100C9
:1009F000000000003C000000000000003A800900F8
:100A0000000000003000000000000000280000008E
:100A10000000000027000100000000002360060025
:100A20000000000021600800000000001E0000001F
:100A3000000000001DC00400000000005000000085
:100A40000200000018000000000000001400000078
:100A50000000000060000000040000000024F4001A
:100A600030003000005A6202910091000087930329
:100A7000D200D20000B4C4041301130100E1F50553
:100A800054015401000E2707950195019C0A0000AE
:0C0A90000000002060010000C402000013
:04000005000002896C
:00000001FF
