:020000040000FA
:10000000680100206D0200008102000083020000F0
:10001000850200008502000085020000000000004B
:100020000000000000000000000000008502000049
:10003000850200000000000085020000850200002B
:100040008502000085020000850200008502000094
:100050008502000085020000850200008502000084
:100060008502000085020000850200008502000074
:100070008502000085020000850200008502000064
:100080008502000085020000850200006D0C000062
:100090008502000085020000850200008502000044
:1000A0008502000085020000850200008502000034
:1000B0008502000085020000850200008502000024
:1000C0008502000085020000850200008502000014
:1000D0008502000085020000850200008502000004
:1000E0008502000000000000000000008502000002
:1000F00085020000850200008502000085020000E4
:1001000085020000850200008502000085020000D3
:1001100000000000000000008502000085020000D1
:1001200085020000850200008502000085020000B3
:1001300085020000850200008502000085020000A3
:1001400000000000000000000000000000000000AF
:100150008502000085020000850200008502000083
:10016000000000000000000000000000000000008F
:10017000000000000000000000000000000000007F
:10018000000000000000000000000000000000006F
:10019000000000000000000000000000000000005F
:1001A000000000000000000000000000000000004F
:1001B0008502000085020000850200008502000023
:1001C0008502000085020000850200008502000013
:1001D0008502000085020000850200008502000003
:1001E00085020000850200008502000085020000F3
:1001F00085020000850200008502000085020000E3
:100200008502000085020000850200000000000059
:1002100085020000850200008502000085020000C2
:1002200085020000850200008502000085020000B2
:1002300085020000850200008502000085020000A2
:100240008502000085020000850200008502000092
:100250008502000085020000850200008502000082
:100260008502000085020000850200004EF68850DD
:10027000CEF20000016841F47001016000F004B8A2
:10028000FEE7FEE7FEE7000000F002F800F03CF8B1
:100290000AA090E8000C82448344AAF10107DA45E1
:1002A00001D100F031F8AFF2090EBAE80F0013F0F7
:1002B000010F18BFFB1A43F001031847342900004F
:1002C00054290000103A24BF78C878C1FAD85207E0
:1002D00024BF30C830C144BF04680C6070470000C0
:1002E0000023002400250026103A28BF78C1FBD83F
:1002F000520728BF30C148BF0B6070471FB502F0DE
:1003000049FA1FBD10B510BD00F070F81146FFF797
:10031000F5FF01F03FFC00F08EF803B4FFF7F2FFA9
:1003200003BC00F08FF800000138FDD170470000D9
:10033000EFF3108072B67047EFF310807047EFF361
:10034000108062B6704730BF704780F311887047E5
:10035000EFF311807047000002480349014A034B44
:10036000704700006800002068010020680000203D
:100370004FF0000200B5134694469646203922BF3E
:10038000A0E80C50A0E80C50B1F12001BFF4F7AF89
:10039000090728BFA0E80C5048BF0CC05DF804EB6B
:1003A000890028BF40F8042B08BF704748BF20F8D9
:1003B000022B11F0804F18BF00F8012B70477047D7
:1003C0007047704710B500F009F8006810BD10B50F
:1003D000044600F003F8046010BD000000487047B8
:1003E0000400002000487047040000207546FFF715
:1003F000F9FFAE4605006946534620F007008546E2
:1004000018B020B5FFF7A8FFBDE820404FF0000668
:100410004FF000074FF000084FF0000B21F00701EC
:10042000AC46ACE8C009ACE8C009ACE8C009ACE82F
:10043000C0098D4670470446AFF300802046FFF7A1
:100440006CFF000001491820ABBEFEE72600020049
:10045000704770B505460E4614463146284600F0F2
:10046000D7F903E014F8010B00F046FA20780028D1
:10047000F8D170BDD0F8003412F0010F14BF0B4357
:100480008B43C0F8003412F0020FD0F8202414BFC0
:10049000114322EA0101C0F8201470472DE9F0074A
:1004A00001274FF0000C0326C2F3411800F6C47474
:1004B00007FA0CF50D4210D0D0F8C49F4FEA4C0556
:1004C00006FA05FA29EA0A09C4F80090D4F800905F
:1004D00008FA05F549EA050525600CF1010C0CF058
:1004E000FF0CBCF1080FE3D3D0F800C512F0010FE8
:1004F00014BF4CEA010C2CEA010CC0F800C5D0F87E
:1005000004C512F0020F14BF4CEA010C2CEA010CD6
:10051000C0F804C5D0F808C512F0040F14BF4CEAA7
:10052000010C2CEA010CC0F808C5D0F818C512F06F
:10053000080F14BF4CEA010C2CEA010CC0F818C5D6
:1005400012F0100FD0F83C2514BF0A438A43C0F8BC
:100550003C25D0F80C2513F0010F14BF0A438A4341
:10056000C0F80C25D0F8102513F0020F14BF0A4371
:100570008A43C0F81025D0F8142513F0040F14BFD7
:100580000A438A43C0F81425D0F81C2513F0080F3D
:1005900014BF0A438A43C0F81C25D0F8442513F43D
:1005A000007F14BF0A438A43C0F84425D0F8402591
:1005B00013F4407F14BF0A438A43C0F84025D0F8A3
:1005C0002825002B0CBF114322EA0101C0F8281591
:1005D000BDE8F007704730B50C46054608230122F8
:1005E000FFF75CFF21462846BDE830400122FFF7B7
:1005F00041BF40F8212070471649042804BF08680D
:1006000040F4803018D0052804BF086840F400305A
:1006100012D0062812D00F2815D0102838BF7047E6
:10062000103800F01F01012202FA01F142090A48C4
:1006300050F822000160704708607047086840F475
:100640008020086070474FF0E020016941F002010E
:100650000161704724ED00E04C29000010B5FFF760
:100660006EFE002818BF012010BD000010B516480E
:1006700000F0E8FA1448401D00F0E4FA4021134865
:10068000FFF7A9FF01211248FFF7A5FF0821104835
:10069000FFF7A1FF4FF4FA7001F060FA302000F08C
:1006A00009F9022000F006F90C2000F003F90620F9
:1006B00000F000F9012000F0FDF8802000F0FAF8C9
:1006C0000A2001F03DFA10BD020800F00060004071
:1006D000007002402DE9F0472DED088B8AB080466E
:1006E0008946B0EE408AF0EE608A1746142105A8CC
:1006F000FFF73EFE14216846FFF73AFE0025AA46A2
:1007000051EC180B01F0BCFC0646304601F0FCFC35
:1007100041EC190B53EC182B01F07AFE41EC180B4D
:10072000AFB99FED391B9FED380B00F01DFBB0EE0C
:1007300040AAF0EE60AA53EC182B51EC1A0B01F012
:1007400033FD41EC190B01F09BFC04461BE03846DD
:1007500001F0DAFC41EC1B0BB0EE4B1AF0EE6B1A19
:100760009FED290B00F000FBB0EE40AAF0EE60AA6E
:1007700053EC182B51EC1A0B01F016FD41EC190B40
:1007800001F07EFC04460DE00A20B4FBF0F100FB12
:100790001140303029466A1CD5B205AA50540A20AF
:1007A000B4FBF0F4002CEFD12E222846691CCDB208
:1007B00005A90A540DE00A20B6FBF0F100FB116018
:1007C000303029466A1CD5B205AA50540A20B6FB1F
:1007D000F0F6002EEFD10AE0681EC0B2054605A96A
:1007E0000A5C5046411C01F0FF0A0DF80020002D64
:1007F000F2D16A4641464846FFF72BFE0AB0BDECEF
:10080000088BBDE8F08700000000000000002440D5
:1008100070B505460E4606F18000C4B235B1012D13
:1008200005D0022D07D0032D0DD108E00CE004F116
:100830001000C4B208E004F10800C4B204E004F1FE
:100840001800C4B200E000BF00BF204600F032F83C
:1008500070BD000070B5054600241BE005FA04F0E9
:1008600000F0800028B1FF2208210C48FFF7C1FEEC
:1008700004E0002208210948FFF7BBFE0022012105
:100880000648FFF7B6FEFF2201210448FFF7B1FE3C
:10089000601CC4B2082CE1DB70BD00000070024097
:1008A00070B504460D461646324621462846FFF7E7
:1008B000D0FD70BD10B50446FF2240210D48FFF762
:1008C00098FEF820FFF7C6FF04F0F000FFF7C2FF24
:1008D000F02101EA0410FFF7BDFF4B2001F03EF9C3
:1008E000002240210348FFF784FE4B2001F036F937
:1008F00010BD00000060004010B50446FF224021FA
:100900000D48FFF776FEFA20FFF7A4FF04F0F00091
:10091000FFF7A0FFF02101EA0410FFF79BFF4B2037
:1009200001F01CF9002240210348FFF762FE4B2032
:1009300001F014F910BD00000060004010B50B4834
:1009400000F080F90A480B490860081D006840F073
:100950000100091D086071210748FFF73CFE0022D5
:1009600071210548FFF745FE10BD0000050800F0A5
:100970004B434F4C205502400050024010B50248F6
:1009800000F0D0F810BD00004005C00010B50D48C3
:1009900000F058F922210C4800F088F90B4AFF2199
:1009A000094800F0C0F92320FFF726FE0121064880
:1009B00000F0B5F9FFF752FEFF21034800F0A6F959
:1009C00010BD0000000400F00000034080F0FA02B7
:1009D00070B44B4D2A6E296F11F0004F14BF01F017
:1009E000700002F03000202808BF464818D005DC0F
:1009F00088B1102808BF444812D009E0302808BF49
:100A000047F230500CD0702808BF4FF4004007D098
:100A100070BC002070477C203C4B00EA1210185834
:100A20004FF0FF3311F0004F02D011F4006F06D0E9
:100A300001F0004C02F400645CEA040C36D1D5F8F5
:100A400060C1D5F8644104F01F06761CC4F3042489
:100A5000641C16FB04F46400B0FBF4F0CCF309044E
:100A60004443CCF3892C00FB0CF0D5F810C004EB08
:100A7000902042F480020CF4704CBCF5804F08BF0B
:100A8000234B13D009DCBCF5005F08BF214B0DD010
:100A9000BCF5405F08BF204B08E0BCF5E04F08BF45
:100AA0001E4B03D0BCF5104F08BF1D4B12F4800F36
:100AB00021D011F0004F19D011F0804F09D011F45E
:100AC000006F0CD001F0004C02F400625CEA0202FC
:100AD00005D0C1F3C551491CB0FBF1F00BE040005B
:100AE000C1F38651491CB0FBF1F004E0C2F3C351DD
:100AF000491CB0FBF1F0834238BF184670BC704708
:100B000000E00F4000093D000024F400A42900008B
:100B1000005A620200B4C40480F0FA0240787D01F9
:100B2000002D3101434B30B4196E1A6F21F480014E
:100B300041F4006142F4006419661C6721EA000276
:100B400012F0010F14D060F0010211409A159A655D
:100B50001966D3F850C0D2021CF4807F08D1521E0F
:100B600004BF30BC7047D3F850C01CF4807FF6D06F
:100B700021F4FE6100F4FE621143DFF8BCC024F0F2
:100B8000700222F0004200EA0C0C4CEA020200F073
:100B9000080C42EACC0219661A6700F4005C21F4E2
:100BA000005122F400524CEA01014CEA02024FF0DB
:100BB000400CC3F858C012F0004F08BF19661A67FE
:100BC00018BF196621F00101DFF870C021F0F8614B
:100BD00000EA0C0C4CEA010122F0FC5200F0FC5C33
:100BE0004CEA020210F0804F08BF22F0804209D088
:100BF000DFF84CC022F4800200EA0C0C41F48001C2
:100C00004CEA020210F4006F08BF4FF400400AD112
:100C1000D3F868C11CF0010F01D1401EF8D121F4B6
:100C2000006122F4006219661A6730BC1020FFF7D9
:100C30007BBB000000E00F40300000800100C007D7
:100C400000004040C0F307230749C0B2194401F037
:100C50007043C1F3130143EA411141EA800040F0BF
:100C6000007001220260704700E60F4010B50121BC
:100C70000B4800F052F80B480078C043094908704F
:100C80000846007828B1012211460748FFF7B1FC59
:100C900004E0002201210448FFF7ABFC10BD000076
:100CA00000000340000000200050024010B4C26861
:100CB00022F0010222F48072C2600A0E0260114A20
:100CC0001268114B02EA030CACF18054CBB2C1F3B1
:100CD0000722B4F520240DD14FF4704C0CEA111406
:100CE000234343F4007343600CEA1121114341F4A0
:100CF000007104E043F40071416042F400718160CE
:100D000010BC704700E00F400000FF70C26840F266
:100D1000011319401143C1607047416270478269F5
:100D200011438161704711F0FF0F18BF826211F407
:100D30007F4F18BFC262704703B40198410000980A
:100D400050EAC12018BF04204A0D18BF40F001002E
:100D500040F2FF72B2EB515F08BF40F00200012881
:100D600008BF052002B070472DE9F04D2DED040BB2
:100D70002DED0C8B96B0DDE92350259CDDF888A085
:100D800025F0004624F00048BAF1000F14BF0121FD
:100D9000002101EB4502FE4953184A1093422AD321
:100DA000002814BF0123002303EB44030B44F9493B
:100DB0008B4220D358EA00019FEDF78B6FD0DFF80C
:100DC000E0B35D4503D1BAF1000F05D187E0BAF178
:100DD000000F08BF002100D0012101EB450111F5F2
:100DE000001F08D8002814BF0121002101EB440195
:100DF00011F5001F0BD99DED241B9DED220B16B0A4
:100E0000BDEC0C8B04B0BDE8F04D00F05DBE0027DA
:100E1000002DBCBFE349884521DAE3498845A8BFD6
:100E200002271CDAC3451ADCE04901EB28511429DA
:100E300008DDC1F1340220FA02F101FA02F2824225
:100E40000DD108E058B9C1F1140228FA02F101FAF3
:100E500002F2424503D101F00101C1F1020756EA55
:100E60000A011DD1002C1BDA002D18BF022F01D062
:100E7000012F0AD00220FFF7AAFA16B0BDEC0C8BA6
:100E800004B0BDE8F04D00F007BE0220FFF79FFA66
:100E900000F002FE51EC100B00F0D1FE83E01EE0EA
:100EA0009FEDC39B9FEDC4AB002872D1BD48804528
:100EB0002DD105F1804010F5801008BFBAF1000F68
:100EC0000DD0B34515DC002CA1BF9DED240B16B051
:100ED000BDEC0C8B04B0A8BFBDE8F08D12E0B0EE05
:100EE000480AF0EE680A16B0BDEC0C8B04B0BDE801
:100EF000F08D002C06DA9DED240B51EC100B00F068
:100F00009EFE50E0AE48784490ED000BEBE7D845EC
:100F10004FD1002C4ADA2EB186423BD1BAF1000FF4
:100F200044D126E0BAF1000F13D00220FFF74FFAA8
:100F300000F0E6FD8DED020B9DED220B8DED000B1B
:100F400010EE900A039961F31E0003909DED020BD1
:100F5000C9E78DED029B9DED220B19EE901A10EE64
:100F6000900A8DED000B61F31E0003909DED020BC6
:100F7000B9E78DED02AB9DED220B1AEE901A10EE43
:100F8000900A8DED000B61F31E0003909DED020BA6
:100F9000A9E729E00ADA9DED220B51EC180B53EC7E
:100FA000102B00F015FF41EC100B9CE79DED220B80
:100FB00099E7864218DAB4F1804F0DD0A4F10050C1
:100FC000B0F1FF5010D1002D0EDB9DED220B51EC46
:100FD000100B00F0FDFDE6E79DED220B53EC102B0E
:100FE00051EC100B00F0AEBC9DED220B51EC100B40
:100FF00000F0C4FDBAF1000FCDE90C0134D19FED32
:10100000720BDEB1A6F1E040B0F17F602CD1002D73
:1010100001DD002C0DDA002D01DD002C1FDB002D81
:1010200016DA002C14DB012F08BF9FED690B3FF48B
:101030005AAFB0EE490AF0EE690A54E7022F18BF22
:10104000002D0CD0012F0AD1002DFFF64CAF06E089
:10105000002DB8BF002C07DA012F3FF444AFB0EEEB
:101060004A0AF0EE6A0A3EE7012000EBE57A5AEA06
:1010700007000CD05848002580457CDD574958486A
:10108000884514DDB0420DDB002C19DB2BE001207C
:10109000FFF79DF916B0BDEC0C8B04B0BDE8F04D28
:1010A00000F01EBDB34502DC002C09DC1BE08642CB
:1010B00002DA002C17DA03E05E4527DD002C12DD92
:1010C0000220FFF784F900F01BFD10EE901A19EED4
:1010D000900A8DED020B8DED009B61F31E000390D5
:1010E0009DED020BFFE60220FFF771F900F018FDFD
:1010F00010EE901A18EE900A8DED020B8DED008B1C
:1011000061F31E0003909DED020BECE69DED220BBA
:1011100053EC182B51EC100B01F052FA9FED320BEF
:10112000CDE90A0153EC102B9DED0A0B51EC100B8D
:1011300001F03AF89FED2E1B53EC112B01F068F9EA
:101140009DED0A1B53EC112B01F02EF89FED2A1B8D
:1011500053EC112B01F05CF99DED0A0B41EC190BDE
:1011600053EC102B51EC100B01F01EF853EC192B23
:1011700001F01AF800E07EE09FED210B41EC1A0B24
:1011800053EC102B9DED0A0B51EC100B3CE00000D2
:10119000FFFF1F00FFFF0F00000000000000F03FF6
:1011A0000000F03F0000F07F0000404301FCFFFF23
:1011B000000000000000F07F0000000000000000C0
:1011C000DE1C0000000000000000000000000080A5
:1011D000000000000000F0FF0000E0410000F043CC
:1011E000FFFFEF3F00000000000000000000D03FC4
:1011F000555555555555D53F000000000000E03FBE
:10120000000000604715F73F00F0CEFF41EC190BDE
:101210009FEDFD0B51EC1A0B53EC102B00F0C4FFAB
:1012200041EC1A0B9FEDFA0B53EC102B9DED0A0BC2
:1012300051EC100B00F0B8FF53EC1A2B01F0C0F981
:1012400041EC1A0B51EC190B53EC1A2B00F004FD76
:101250000690CDE906519DED060B53EC192B51EC90
:10126000100B01F0ADF953EC1A2B01F0D1F841EC61
:10127000100B00F09FB90020B6F5801F0EDA9FED2D
:10128000E60B53EC102B9DED0C0B51EC100B00F00A
:101290008BFFCDE90C016FF034000E4600EB2650B9
:1012A000A0F2FF38C6F31300DD4940F07F6646F038
:1012B00040568842D8BF002409DDDA498142C8BFC0
:1012C000012404DC0024A6F5801608F10108D648A4
:1012D000784400EBC4000D9690ED00BB9DED0C0B27
:1012E00053EC1B2B51EC100B01F06AF99DED0C0B2C
:1012F00041EC1A0B53EC1B2B51EC100B00F0ACFC27
:1013000041EC100B51EC180B53EC102B00F060FD6E
:1013100041EC1C0B51EC1A0B53EC1C2B00F044FF5E
:1013200041EC190BC1488DED109B7844109590ED60
:10133000000B4FF0005040EA660000EB84408DED5A
:101340000A0B00F500200B909DED0A0B53EC1B2BB4
:1013500051EC100B01F034F99DED0C1B53EC112BEB
:1013600001F056F841EC100B53EC102B9DED100BD7
:1013700051EC100B00F018FF9DED0A0B41EC1B0B1C
:1013800053EC102B9DED100B51EC100B00F00CFFEB
:1013900053EC1A2B01F03CF853EC1B2B01F010F925
:1013A00053EC1C2B00F000FF41EC1B0B53EC192BF2
:1013B00051EC190B00F0F8FE41EC1A0B9C48062189
:1013C000B0EE4A0AF0EE6A0A784400F0E9FAB0EEAC
:1013D00040CAF0EE60CA53EC1A2B51EC1A0B00F025
:1013E000E3FE53EC1C2B00F0DFFE9DED100B41ECF7
:1013F0001A0B53EC192B51EC100B00F02DFC53EC95
:101400001B2B00F0D1FE53EC1A2B00F025FC9DEDB8
:10141000100B41EC1A0B53EC102B51EC100B00F09D
:10142000C3FE41EC1C0B9FED84DB53EC1D2B00F045
:1014300013FC53EC1A2B00F00FFC0A90CDE90A5173
:101440009DED0A0B53EC1D2B51EC100B01F0B8F87D
:1014500053EC1C2B01F0B4F853EC1A2B00F0D8FF1E
:101460009DED0A0B41EC1C0B53EC102B9DED100B6A
:1014700051EC100B00F098FE41EC1A0B53EC192BB9
:1014800051EC1C0B00F090FE9DED0A0B41EC190B8A
:1014900053EC102B51EC1B0B00F086FE53EC192B78
:1014A00000F0DAFB41EC190B51EC1A0B53EC192B41
:1014B00000F0D2FB1090CDE910519DED100B53ECD4
:1014C0001A2B51EC100B01F07BF853EC192B00F0A8
:1014D0009FFF41EC190B9FED5A0B53EC102B9DED28
:1014E000100B51EC100B00F05FFE41EC1A0B9FED5E
:1014F000560B51EC190B53EC102B00F055FE41EC40
:10150000190B9FED530B53EC102B9DED100B51EC71
:10151000100B00F049FE53EC192B00F09DFB41EC41
:10152000100B4D48784400EBC40090ED001B51ECCB
:10153000100B53EC112B00F08FFB41EC190B4046C4
:1015400000F0CBFDCDE90A0153EC192B51EC1A0B3D
:1015500000F082FB41EC100B4048784400EBC400E3
:1015600090ED00BB51EC100B53EC1B2B00F074FB07
:101570009DED0A1B53EC112B00F06EFB0690CDE99C
:1015800006519DED0A0B53EC102B9DED060B51EC13
:10159000100B01F015F853EC1B2B01F011F853EC74
:1015A0001A2B01F00DF853EC192B00F031FF41EC30
:1015B000100B00BF781EB0EE48AAF0EE68AA5AEAF7
:1015C000000008BF9FED268B9DED241B53EC102BD4
:1015D0008DED001B00959DED240B51EC100B00F0E0
:1015E000E3FD9DED000B41EC190B53EC102B9DED31
:1015F000240B51EC100B00F0E3FF9DED061B53ECA8
:10160000112B00F0D1FD2FE0FE822B654715F73F2F
:1016100044DF5DF80BAE543E000000000000404384
:101620008E9803007AB60B008C180000BA180000E0
:10163000C417000000000000000000000000084087
:10164000000000E009C7EE3FFD033ADC09C7EE3FAA
:10165000F5015B14E02F3EBE581600001216000084
:10166000000000000000F0BF53EC192B00F0F4FA6A
:101670009DED060B41EC190B53EC102B9DED000B6F
:1016800051EC100B00F090FDCDE910019DED100B19
:1016900051EC190B53EC102B00F0DEFACDE90201EE
:1016A0000C46AB498C422FDB611A084318D19DEDE3
:1016B000100B53EC102B9DED020B51EC100B00F0B6
:1016C0007FFF41EC1B0B9FEDA40B51EC190B53EC6E
:1016D000102B00F0C1FA53EC1B2B00F063FE2DD24F
:1016E0000220FEF774FE00F00BFA10EE901A18EECE
:1016F000900A8DED020B8DED008B61F31E000390BF
:101700009DED020BFFF7EFBB954A24F0004191429B
:1017100014D39449214408437FF4E5AC9DED100BAC
:1017200053EC102B9DED020B51EC100B00F048FF19
:1017300053EC192B00F036FE7FF6D5AC24F00040B8
:1017400089498A4A002601EB205182422BDA481C43
:101750004FF4801121FA00F02044854AC0F30A5169
:101760007A44A1F2FF3192ED000B824A8DED0A0B13
:10177000CA4020EA0202C0F3130040F48010C1F115
:10178000140120FA01F60B92002CB8BF76429DEDB1
:101790000A0B53EC102B9DED100B51EC100B00F0CD
:1017A0000FFFCDE910019DED100B51EC190B53EC1F
:1017B000102B00F051FA9FED700B0A90CDE90A5101
:1017C00053EC102B9DED0A0B51EC100B00F0ECFCD0
:1017D00041EC1B0B9FED6A0B53EC102B9DED0A0B9C
:1017E00051EC100B00F0E0FC9DED100B41EC1C0BDC
:1017F00053EC102B9DED0A0B51EC100B00F0E0FEAA
:1018000053EC192B00F004FE9FED5F1B53EC112BE2
:1018100000F0CAFC53EC1C2B00F01EFA41EC190B33
:1018200051EC1B0B53EC192B00F016FACDE9020119
:101830009DED020B53EC1B2B51EC100B00F0C0FE86
:1018400053EC192B00F0E4FD9DED020B41EC190B5C
:1018500053EC102B51EC100B00F0A6FCCDE90A0163
:101860004B489DED0A0B0521784400F099F89DED59
:101870000A1B51EC100B53EC112B00F095FC9DED65
:10188000021B53EC112B00F0C3FDCDE906019DEDC9
:10189000020B53EC192B51EC100B00F085FC53ECB0
:1018A000192B00F0D9F99FED3C0B41EC190B53ECCF
:1018B000102B9DED060B51EC100B00F081FE9DED01
:1018C000060B41EC1B0B53EC102B9DED020B51EC66
:1018D000100B00F069FC53EC1B2B00F079FA53EC71
:1018E000192B00F06DFE9DED021B53EC112B00F047
:1018F00067FE53EC1A2B00F08BFDCDE9020101EBE2
:10190000065001150029C8BF039015DC9DED020BA0
:10191000324651EC100B00F074FFFFF70DFA04286B
:1019200008BF00F0FDF832469DED020B51EC100BA4
:1019300000F067FFCDE902019DED020B51EC180BA1
:1019400053EC102B00F030FCFFF72DBB0000000023
:101950000000904000000000FE822B654715973C78
:1019600000CC904000346F3F01FCFFFF0000E03FDF
:1019700084140000FFFF0F0000000000432EE63F2C
:10198000396CA80C615C20BEEF39FAFE422EE63FAE
:1019900054130000000000000000000000000040A0
:1019A00070B504462DED028B4D1E00EBC500B0EE68
:1019B000408AF0EE608A90ED000B35F0060017D0FB
:1019C00053EC182B51EC100B00F0EEFB41EC100B1C
:1019D0006D1E04EBC50090ED001B51EC100B53EC99
:1019E000112B00F039F941EC100B35F00600E7D16E
:1019F000022D36D0042D1CD0062D1CBFBDEC028B51
:101A000070BD53EC182B51EC100B00F0CDFB94ED96
:101A10000A1B53EC112B00F01FF953EC182B00F0AC
:101A2000C3FB94ED081B53EC112B00F015F941ECAE
:101A3000100B53EC182B51EC100B00F0B5FB94ED90
:101A4000061B53EC112B00F007F953EC182B00F098
:101A5000ABFB94ED040B53EC102B00F0FDF841ECC4
:101A6000100B53EC182B51EC100B00F09DFB94ED78
:101A7000021B53EC112B00F0EFF853EC182B00F085
:101A800093FB94ED001B53EC112B00F0E5F8BDEC3B
:101A9000028B41EC100B70BD9FED070B10B553ECA2
:101AA000102B9FED070B51EC100B00F091F941EC5E
:101AB000100B10BD0000000000000000000000003E
:101AC000000000000000F03F10B553EC112B51EC6A
:101AD000100B00F0C1F841EC100B10BD000000002D
:101AE0009FED050B10B553EC102B51EC100B00F0D3
:101AF0006FF941EC100B10BD000000000000000069
:101B00009FED050B10B553EC102B51EC100B00F0B2
:101B10004BFB41EC100B10BD0000000000000070FA
:101B20009FED050B10B553EC102B51EC100B00F092
:101B30003BFB41EC100B10BD00000000000000104A
:101B400070B50446FEF744FF4FF47A61B0FBF1F044
:101B500000FB04F52846FEF7E7FB70BD70B50446B0
:101B6000FEF736FF0449B0FBF1F000FB04F5284610
:101B7000FEF7DAFB70BD000000093D0082B0CDE940
:101B8000000121F0004001909DED000B02B051ECEE
:101B9000100B7047FEF7F2FEFEF7D0FEFEF7F6FEE2
:101BA000FEF764FD06A200210846FEF779FE052235
:101BB0009FED050B01210020FEF78CFD00BFFEE725
:101BC000A1F8A1F7000000006F1283C0CA210940EC
:101BD00000B52DED048B83B041EC190B00F024FC13
:101BE00041EC180B18EE100A18EE901A8DED008BD0
:101BF000002818BF0120084320F00040C0F17F609A
:101C000000F1E040C00F14D019EE101A19EE900A3E
:101C10008DED009B002918BF0121084320F00040F2
:101C2000C0F17F6000F1E040C00F04BF0120FEF76B
:101C3000CEFB51EC180B03B0BDEC048B00BD81F062
:101C40000041704780F00040704721F0004170472C
:101C500020F000407047000010B591EA030F48BF24
:101C600083F0004300F1B484841A71EB030C05D2B5
:101C7000121943EB0C03001B61EB0C01DFF824E1AC
:101C80004FEA1154A4EB135C1EEA430F18BF9EEAFF
:101C9000445F73D023EA0E03DCF1200E21EA0451E5
:101CA00043F4801332D322FA0CFE10EB0E0023FA19
:101CB0000CFE41EB0E01CCF1200E03FA0EFE10EBF0
:101CC0000E0051F10001B1F5801FCCF1200E32D28F
:101CD00001EB045112FA0EF2BDE8104058BF7047F4
:101CE000401C38BF5FEA420218BF7047002814BF8B
:101CF00020F0010041F100014FEA410313F5001FFC
:101D000038BF7047A1F1C04100F046BB012A43EB48
:101D10000302ACF1200CDCF11F0E32BF4FF0000EBD
:101D200023FA0CF310EB030041EB0451B4EB115F09
:101D3000D0D0A1EB045101F5801149085FEA3000D1
:101D400001EB04510ED350F1000038BF12FA0EFE21
:101D500008D1BDE81040C9E7401C38BF5FEA420225
:101D6000CAD1C3E7BDE810404FEA410313F5001F95
:101D700038BF7047A1F1C04100F00EBB9EEA445F3E
:101D800008D011EA5E0FBDE8104004BF01F0004129
:101D900000207047BDE8104070B500F0AFFA00BFFA
:101DA00064FBBE3E0000E0FF02494FF0000000F07F
:101DB000F6BC00BF0000F87F491058BFC1F1404198
:101DC0005B1058BFC3F140438B42EFF30080704774
:101DD0002DE9C04130B4DFF8A0C23CEA111418BFAD
:101DE0003CEA131400F0EC8081EA03051CEA1114AC
:101DF00044EAD57418BF1CEA131500F0C780A4EBA1
:101E000005044FF0004545EAC12145EAC32341EAF4
:101E1000505143EA525304F17F74994204F500345F
:101E20004FEAC0204FEAC22208BF904200F09C80D7
:101E30004FEA13650FF24016765D4FEA134506FB35
:101E400005F7C7F1807706FB07F74FEAD737A7FBFF
:101E500003687642C8F58038A7FB06CE38BFA8F1E4
:101E6000010807FB08E64FF0000EA6FB028CE6FB1C
:101E700003CEDCF1000CCEF1004E38BFAEF1010E06
:101E8000A6FB0C584FF000074FF00005E6FB0E874D
:101E9000A1FB08C6A0FB07CE16EB0E0645F1000518
:101EA000E1FB076515F1E04E7EBFA4F580345FEAE3
:101EB00046066D4116F1800745F100054FEA1727E8
:101EC0004FEA066647EA0567A6F1DE46B6F1805F8F
:101ED0004FEA15251FD9384624F0010C05EBC471D3
:101EE000BCF1FE6F01EB0C1102D8F0BCBDE8008123
:101EF00024425CBF01F5801E9EEAC47F02D4F0BC80
:101F0000BDE80081244238D4F0BCA1F1C041BDE855
:101F1000004100F041BA4FEAD22242EA43524FEA6E
:101F2000D323A7FB02864FEAD02040EA415007FBAB
:101F300003661EEA0E0F4FEAD12105FB026658BF69
:101F4000A6EB0056B6EB00564FEA520E4EEAC37EA1
:101F500018EB0E0E56EB530EBDD518EB02085E4182
:101F60007F1C55F10005B6E74FF480154FF00007D0
:101F70004FF000064FF00008ADE7F0BC4FF0000056
:101F800001F1C04101F00041BDE8008111EA0C1FE0
:101F90000CEA131500D00CE013EA0C1F00F02580AA
:101FA0004FF00000F0BC81EA030101F00041BDE800
:101FB0000081F0BCBDE8004181EA030100F0ECB90A
:101FC000F0BCBDE8004170B500F098F9097EFC3E18
:101FD00000F007B881EA03014FF0000001F0004172
:101FE000704781EA030100F0D7B9F0BCBDE80041B9
:101FF0004FF0000021497047FFFDFBF9F7F5F4F2BF
:10200000F0EEEDEBE9E8E6E4E3E1E0DEDDDBDAD893
:10201000D7D5D4D3D1D0CFCDCCCBCAC8C7C6C5C4F1
:10202000C2C1C0BFBEBDBCBBBAB9B8B7B6B5B4B308
:10203000B2B1B0AFAEADACABAAA9A8A8A7A6A5A4F3
:10204000A3A3A2A1A09F9F9E9D9C9C9B9A999998B7
:102050009797969595949393929191908F8F8E8E5A
:102060008D8C8C8B8B8A89898888878786858584E7
:1020700084838382828181800000FF070000F87FD3
:102080004FEA1153A3F58063D3F11E03A8BFD3F128
:10209000200C08DB4FF0004242EAC12252EA5052C3
:1020A00032FA03F0704709420BD4102BC4BF002052
:1020B000704703F5787CBCF1FF3F05D04FF0FF304F
:1020C00070474FF00000704770B500F017F900BF7F
:1020D0004992248000207047F0E710F0004248BF8A
:1020E0004042B0FA80F310FA03F10AD0C3F11D03A5
:1020F00003F580634FEA415002EB035202EBD1211A
:1021000070474FF000007047B0FA80F310FA03F107
:102110000AD0C3F11D0303F580634FEA41504FEA33
:10212000035202EBD12170474FF0000070470000CE
:1021300051EA030C17D41CF5801F58BFBCF5801F53
:1021400000F10680994218BF704708BF904270475F
:1021500007D711F5801F58BF13F5801F19D4994276
:102160007047894270471CF5801F08D5BCF5801F59
:10217000F7D58B4218BF704708BF824270474FF4B3
:10218000001C1CEB410F38BF1CEB430F01D28B42EC
:10219000704770B500F0B2F8922449004FF000513A
:1021A0004FF08053FFF708BEDFF848C170B51CEA56
:1021B000111E1EBF1CEA13159EEA0C0F95EA0C0FA8
:1021C00000F06F8081EA030423EA4C134EEAD47EC8
:1021D00021EA4C1141F4801143F48013AE44A1FB79
:1021E000024CA0FB0365AEF17F7E361955EB0C0562
:1021F000A1FB034C4CF10003A0FB021C16EB0C06E8
:10220000654153F10003094218BF46F0010613F47B
:10221000007F0BD14FEA03314FEA0530340341EA26
:10222000155140EA16506FF003020AE04FEAC3214D
:102230004FEAC520F40241EA555140EA56506FF08A
:10224000020202EB2E4201EB025585EACE710AD062
:102250005FEA440C18BF24F0004450F1000041F143
:10226000000120EAD47040F2FE7C624500D270BDCD
:10227000A84214BF4FF080444FF04044002E08BFE6
:102280000024BEF1806FA8BFA1F1C041BDE870403D
:1022900080F282804FF0000001F1C04101F0004166
:1022A00070479EEA0C0F0CEA131518BF95EA0C0F45
:1022B00006D04FF0000081EA030E0EF0004170BD21
:1022C00000F01CF88900013E00F007B800F009B8E2
:1022D0004FEA430C5FEA5C5C08D081EA030100F03E
:1022E0005BB84FEA410C5FEA5C5CF6D14FF000004E
:1022F000014970470000FF070000F87F0EF1020E51
:102300002EF0030E5EF8046B364205D4012A43EB2F
:10231000030515F5001F12D8012841EB010C1CF52F
:10232000001F0CD80ED14FEAD17C15F5001F0CEB25
:102330004C0C0CF1020C08BF4CEBD37C04E04FF0CA
:10234000080C01E04FEAD37C0CEB4C0526FA05F6AD
:1023500006F00706B6F1040C06D20EEB860CBDE8BB
:1023600070404CF0010C6047DFE80CF0090B0202F2
:102370004FF000414FF00000A1F5002170BD19465B
:102380001046012851EB010418BFD4F5001484BF96
:10239000002001F0004170BD0808A0F500114FEACF
:1023A0003101704753EA010C17D41CF5801F58BF48
:1023B000BCF5801F00F106808B4218BF704708BF34
:1023C0008242704707D713F5801F58BF11F5801F51
:1023D00019D48B4270479B4270471CF5801F08D56B
:1023E000BCF5801FF7D5994218BF704708BF9042CF
:1023F00070474FF4001C1CEB430F38BF1CEB410F20
:1024000001D2994270470FB40CBC03BCFFF7C1BEA8
:1024100091EA030F10B581F000413FF525AC83F040
:10242000004300F0D5B800002DE9F04101F5801C13
:10243000BCF5001FC0F2A9804FEA115C21EA0C51E3
:102440000CF1FD0C41F480115FEA5C0C0CF5C07CD2
:1024500001D34000494130A4890241EA90518702EA
:102460008E0E0A0CA45D04FB04F602FB06F6C6F110
:102470004046A4FB0662F60D46EA422606FB06F439
:10248000A4FB01235242C3F1404338BF5B1EA6FBAD
:1024900002420024E6FB0324D20B42EA4446A6FB98
:1024A0000623A1FB02E2A3FB07E4E3FB61426442D3
:1024B000C2F1404E38BFAEF1010EA6FB04234FF02F
:1024C0000002E6FB0E32A2FB03463400E2FB62642C
:1024D000A1FB06E6A4FB07E8E4FB61687642C8F1CD
:1024E000405838BFA8F10108A2FB06E4A3FB08E5A9
:1024F000E2FB6854A1FB05E6A7FB04E8E1FB648668
:1025000018F1200556F10006A809A8F11B08B10929
:1025100008F03F08B8F10A0F40EA86601CD901EBC9
:102520000C51BDE8F08100BFFCF5EEE8E2DDD8D348
:10253000CFCBC7C3C0BDB9B6B4B1AEACA9A7A5A334
:10254000A19F9D9B9A9896959392908F8D8C8B8945
:102550008887868584838281A0FB006800FB01F266
:1025600008EB4208B8EB872807D5341858EB01046C
:10257000D5D5401C51F10001D1E7341A78EB0104A4
:10258000CDD4401E71F10001C9E75FEA4C0C5FEA4F
:102590009C5C0DD105D34FF0000001F00041BDE877
:1025A000F081BDE8F04170B5FFF7A8FE6DDBFFBE1E
:1025B000BDE8F0414FF00000004970470000F87F8F
:1025C00010B591EA030F48BF83F000433FF54CABD1
:1025D000841A71EB030C07D212198CF0004C43EBF8
:1025E0000C03001B61EB0C01DFF8A4E14FEA11546E
:1025F000A4EB135C1EEA430F18BF9EEA445F00F091
:10260000B08023EA6E03524221EA0451C3EB6E0309
:1026100038BF5B1EDCF1200E25D322FA0CFE10EB36
:102620000E0043FA0CFE41EB0E01CCF1200E03FA32
:102630000EFE10EB0E0051F10001CCF1200E29D45A
:1026400012FA0EF201EB0451BDE8104058BF70477A
:10265000401C1CBFB2F1004F704700280CBF491C42
:1026600020F00100704712EB020E43EB030218BF8B
:102670004FF0010E4EEA4202ACF1200CDCF11E0ECE
:1026800054D943FA0CFE10EB0E0051F1FF31CCF19E
:102690001E0ED5D50EF1010E12FA0EFE404141EB91
:1026A000010101EB445C5FEA5C5C10D910EBDE7069
:1026B00001EB045138BFBEF1004FBDE8104018BF18
:1026C000704700280CBF491C20F00100704730D231
:1026D0004FEAD42C11F5001124F400641BD0B1FA98
:1026E00081F20B3AA41AA41ED2F12003914030FAD1
:1026F00003F31943904001EBCC71002C01EB045122
:10270000BDE81040A8BF704701F1C0414FF0000084
:1027100001F000417047B0FA80F310FA03F100D1E4
:1027200010BDE41A173C4805C90AE4E701EB04515F
:1027300010BD491001EB0451BDE810404FEA3000D4
:1027400002E04FF0000170474A0008BF0042F8D095
:10275000B2F5001F28BF704701F000414FF00000A4
:1027600070479EEA445F07D011EA5E0FBDE8104053
:1027700004BF002100207047BDE8104070B5FFF78E
:10278000BDFD00BF40DFF63E83F0004110467047BC
:102790000000E0FF4FF04070E1EE100A70470CF0CF
:1027A0000F03092B08BF082000F059800A2B0BD01B
:1027B000082B18BF704708BF1CF0400F0AD04FF01D
:1027C00000004FF0000170471CF0400F18BF4FF0A1
:1027D000004070471CF0100F08D020F0704300F04C
:1027E0007F4242EAD3014FEA4370704700F06040F5
:1027F00021F07F4242EA000201F07F4040EA72701D
:1028000070474FF0FF0C4CF4E06C1CEA11531CBFF6
:102810009CEA030C9445C2BFDA4201EB02517047B7
:10282000002B0DD0BCF1000F0FD0002A01F00041A9
:10283000A4BF41F0E04141F07F614FF000007047DC
:1028400001F000414FF00000704750EA01334FF0B3
:102850009B0C18BF4CF0806C7FF4A6AA70471CF448
:10286000801F11D01CF4E02F03D06FEACC31490057
:1028700070474FF04050EFF3008222F0704242EA7E
:10288000000282F3008870474FF00000704700009C
:102890000007000000060000000500000004000022
:1028A0000003000000020000000100000000000022
:1028B0000000000018ED00E01CED00E020ED00E05D
:1028C00000E400E004E400E008E400E00CE400E0E0
:1028D00010E400E014E400E018E400E01CE400E090
:1028E00020E400E024E400E028E400E02CE400E040
:1028F00030E400E034E400E038E400E03CE400E0F0
:1029000040E400E044E400E048E400E04CE400E09F
:1029100050E400E054E400E058E400E05CE400E04F
:1029200060E400E064E400E068E400E06CE400E0FF
:1029300070E400E074E400E078E400E07CE400E0AF
:1029400080E400E084E400E088E400E000E100E0EE
:1029500004E100E008E100E00CE100E010E100E04B
:1029600080E100E084E100E088E100E08CE100E04B
:1029700090E100E000E200E004E200E008E200E0B4
:102980000CE200E010E200E080E200E084E200E01F
:1029900088E200E08CE200E090E200E000D0121358
:1029A00000389C1C40420F0000201C0080841E0048
:1029B00000802500999E36000040380000093D0047
:1029C00000803E0000004B00404B4C0000204E00B9
:1029D000808D5B0000C05D000080700000127A00F6
:1029E00000007D0080969800001BB7000080BB00AF
:1029F000C0E8CE00647ADA000024F4000000FA0097
:102A000080A81201002D310100366E0140787D0151
:102A100040000000000000003E0008000000000030
:102A2000A00000000200000034540100000000007B
:102A30002B700600000000002800000000000000CD
:102A4000270001000000000020000000000000003E
:102A500050000000020000001AAC0000000000005E
:102A600017940900000000001698050000000000FF
:102A700014000000000000001380080000000000A7
:102A8000A00000000800000010000000000000008E
:102A900028000000020000004000000004000000C8
:102AA00060000000000000005D000C00000000005D
:102AB00050000000000000004E0002000000000076
:102AC00041AC0100000000003C00000000000000DC
:102AD0003A80090000000000300000000000000003
:102AE0002800000000000000270001000000000096
:102AF00023600600000000002160080000000000C4
:102B00001E000000000000001DC0040000000000C6
:102B1000500000000200000018000000000000004B
:102B2000140000000000000060000000040000002D
:102B30000024F40030003000005A6202910091003D
:102B400000879303D200D20000B4C4041301130120
:102B500000E1F50554015401000E27079501950188
:102B6000000000000000F03F000000000000F83FFF
:102B700000000000000000000000004003B8E23F39
:102B8000000000000000000006D0CF43EBFD4C3EEB
:102B9000033333333333E33FFFAB6FDBB66DDB3FE0
:102BA0004D268F515555D53F01411DA96074D13F28
:102BB00065DBC9934A86CD3FEF4E454A287ECA3F22
:102BC0003E5555555555C53F93BDBE166CC166BFA4
:102BD0002CDE25AF6A56113FF16BD2C541BDBBBE9D
:102BE000D0A4BE726937663E0000000000000000FD
:102BF000102C00000000002004000000C4020000AF
:102C0000142C00000400002064010000E002000019
:042C100000000000C0
:04000005000002896C
:00000001FF
