:020000040000FA
:10000000600100206D0200008102000083020000F8
:10001000850200008502000085020000000000004B
:100020000000000000000000000000008502000049
:10003000850200000000000085020000850200002B
:100040008502000085020000850200008502000094
:100050008502000085020000850200008502000084
:100060008502000085020000850200008502000074
:100070008502000085020000850200008502000064
:100080008502000085020000850200008502000054
:100090008502000085020000850200008502000044
:1000A0008502000085020000850200008502000034
:1000B0008502000085020000850200008502000024
:1000C0008502000085020000850200008502000014
:1000D0008502000085020000850200008502000004
:1000E0008502000000000000000000008502000002
:1000F00085020000850200008502000085020000E4
:1001000085020000850200008502000085020000D3
:1001100000000000000000008502000085020000D1
:1001200085020000850200008502000085020000B3
:1001300085020000850200008502000085020000A3
:1001400000000000000000000000000000000000AF
:100150008502000085020000850200008502000083
:10016000000000000000000000000000000000008F
:10017000000000000000000000000000000000007F
:10018000000000000000000000000000000000006F
:10019000000000000000000000000000000000005F
:1001A000000000000000000000000000000000004F
:1001B0008502000085020000850200008502000023
:1001C0008502000085020000850200008502000013
:1001D0008502000085020000850200008502000003
:1001E00085020000850200008502000085020000F3
:1001F00085020000850200008502000085020000E3
:100200008502000085020000850200000000000059
:1002100085020000850200008502000085020000C2
:1002200085020000850200008502000085020000B2
:1002300085020000850200008502000085020000A2
:100240008502000085020000850200008502000092
:100250008502000085020000850200008502000082
:100260008502000085020000850200004EF68850DD
:10027000CEF20000016841F47001016000F004B8A2
:10028000FEE7FEE7FEE7000000F002F800F02EF8BF
:100290000AA090E8000C82448344AAF10107DA45E1
:1002A00001D100F023F8AFF2090EBAE80F0013F005
:1002B000010F18BFFB1A43F0010318475404000054
:1002C000640400000023002400250026103A28BF03
:1002D00078C1FBD8520728BF30C148BF0B607047B8
:1002E0001FB500F00FFA1FBD10B510BD00F021F8CA
:1002F0001146FFF7F5FF00F0DBF900F03FF803B41B
:10030000FFF7F2FF03BC00F043F800000138FDD115
:100310007047000002480349014A034B7047000040
:1003200060000020600100206000002070477047DE
:100330007047754600F028F8AE46050069465346FA
:1003400020F00700854618B020B5FFF7E3FFBDE8B1
:1003500020404FF000064FF000074FF000084FF02C
:10036000000B21F00701AC46ACE8C009ACE8C009BD
:10037000ACE8C009ACE8C0098D4670470446AFF34D
:1003800000802046FFF7BBFF0048704700000020B8
:1003900001491820ABBEFEE7260002007047D0F8E6
:1003A000003412F0010F14BF0B438B43C0F800342C
:1003B00012F0020FD0F8202414BF114322EA0101E9
:1003C000C0F8201470472DE9F00701274FF0000C0A
:1003D0000326C2F3411800F6C47407FA0CF50D4267
:1003E00010D0D0F8C49F4FEA4C0506FA05FA29EA66
:1003F0000A09C4F80090D4F8009008FA05F549EA13
:10040000050525600CF1010C0CF0FF0CBCF1080F88
:10041000E3D3D0F800C512F0010F14BF4CEA010C71
:100420002CEA010CC0F800C5D0F804C512F0020F88
:1004300014BF4CEA010C2CEA010CC0F804C5D0F83A
:1004400008C512F0040F14BF4CEA010C2CEA010C91
:10045000C0F808C5D0F818C512F0080F14BF4CEA50
:10046000010C2CEA010CC0F818C512F0100FD0F8DE
:100470003C2514BF0A438A43C0F83C25D0F80C251C
:1004800013F0010F14BF0A438A43C0F80C25D0F8BB
:10049000102513F0020F14BF0A438A43C0F8102539
:1004A000D0F8142513F0040F14BF0A438A43C0F890
:1004B0001425D0F81C2513F0080F14BF0A438A43F3
:1004C000C0F81C25D0F8442513F4007F14BF0A435C
:1004D0008A43C0F84425D0F8402513F4407F14BF68
:1004E0000A438A43C0F84025D0F82825002B0CBFCA
:1004F000114322EA0101C0F82815BDE8F007704752
:1005000030B50C46054608230122FFF75CFF214663
:100510002846BDE830400122FFF741BF40F82120C6
:100520007047000010B5084800F0AEF807480849C9
:100530000860081D006840F00100091D0860712175
:100540000448FFF7DDFF10BD050800F04B434F4C9A
:10055000205502400050024010B5024800F004F857
:1005600010BD000040054002434B30B4196E1A6FB5
:1005700021F4800141F4006142F4006419661C67B3
:1005800021EA000212F0010F14D060F001021140C4
:100590009A159A651966D3F850C0D2021CF4807F70
:1005A00008D1521E04BF30BC7047D3F850C01CF4B1
:1005B000807FF6D021F4FE6100F4FE621143DFF883
:1005C000BCC024F0700222F0004200EA0C0C4CEA9D
:1005D000020200F0080C42EACC0219661A6700F425
:1005E000005C21F4005122F400524CEA01014CEA73
:1005F00002024FF0400CC3F858C012F0004F08BF81
:1006000019661A6718BF196621F00101DFF870C07A
:1006100021F0F86100EA0C0C4CEA010122F0FC52D6
:1006200000F0FC5C4CEA020210F0804F08BF22F0A0
:10063000804209D0DFF84CC022F4800200EA0C0CA2
:1006400041F480014CEA020210F4006F08BF4FF43D
:1006500000400AD1D3F868C11CF0010F01D1401E3F
:10066000F8D121F4006122F4006219661A6730BCE7
:100670001020FFF74BBE000000E00F40300000806C
:100680000100C00700004040C0F307230749C0B283
:10069000194401F07043C1F3130143EA411141EAE7
:1006A000800040F0007001220260704700E60F40B9
:1006B000FFF752FFFFF736FF1FE0012271210F48BD
:1006C000FFF72CFF0E48FFF721FE102271210B4887
:1006D000FFF724FF0A48FFF719FE2022712107487F
:1006E000FFF71CFF0648FFF711FE40227121034867
:1006F000FFF714FF0248FFF709FEDEE70050024053
:1007000080841E004FF04070E1EE100A7047000038
:10071000200700000000002060010000C40200006B
:04000005000002896C
:00000001FF
