:020000040000FA
:10000000680100206D0200008102000083020000F0
:10001000850200008502000085020000000000004B
:100020000000000000000000000000008502000049
:10003000850200000000000085020000850200002B
:100040008502000085020000850200008502000094
:100050008502000085020000850200008502000084
:100060008502000085020000850200008502000074
:100070008502000085020000850200008502000064
:100080008502000085020000850200000D090000C5
:100090008502000085020000850200008502000044
:1000A0008502000085020000850200008502000034
:1000B0008502000085020000850200008502000024
:1000C0008502000085020000850200008502000014
:1000D0008502000085020000850200008502000004
:1000E0008502000000000000000000008502000002
:1000F00085020000850200008502000085020000E4
:1001000085020000850200008502000085020000D3
:1001100000000000000000008502000085020000D1
:1001200085020000850200008502000085020000B3
:1001300085020000850200008502000085020000A3
:1001400000000000000000000000000000000000AF
:100150008502000085020000850200008502000083
:10016000000000000000000000000000000000008F
:10017000000000000000000000000000000000007F
:10018000000000000000000000000000000000006F
:10019000000000000000000000000000000000005F
:1001A000000000000000000000000000000000004F
:1001B0008502000085020000850200008502000023
:1001C0008502000085020000850200008502000013
:1001D0008502000085020000850200008502000003
:1001E00085020000850200008502000085020000F3
:1001F00085020000850200008502000085020000E3
:100200008502000085020000850200000000000059
:1002100085020000850200008502000085020000C2
:1002200085020000850200008502000085020000B2
:1002300085020000850200008502000085020000A2
:100240008502000085020000850200008502000092
:100250008502000085020000850200008502000082
:100260008502000085020000850200004EF68850DD
:10027000CEF20000016841F47001016000F004B8A2
:10028000FEE7FEE7FEE7000000F002F800F03CF8B1
:100290000AA090E8000C82448344AAF10107DA45E1
:1002A00001D100F031F8AFF2090EBAE80F0013F0F7
:1002B000010F18BFFB1A43F001031847480A00005A
:1002C000680A0000103A24BF78C878C1FAD85207EB
:1002D00024BF30C830C144BF04680C6070470000C0
:1002E0000023002400250026103A28BF78C1FBD83F
:1002F000520728BF30C148BF0B6070471FB500F0E0
:1003000093FB1FBD10B510BD00F035F81146FFF787
:10031000F5FF00F06FFB00F053F803B4FFF7F2FFB6
:1003200003BC00F057F800000138FDD17047000011
:10033000EFF3108072B67047EFF310807047EFF361
:10034000108062B6704730BF704780F311887047E5
:10035000EFF311807047000002480349014A034B44
:10036000704700006800002068010020680000203D
:10037000704770477047754600F028F8AE46050094
:100380006946534620F00700854618B020B5FFF7B0
:10039000E3FFBDE820404FF000064FF000074FF0AC
:1003A00000084FF0000B21F00701AC46ACE8C00993
:1003B000ACE8C009ACE8C009ACE8C0098D4670479C
:1003C0000446AFF300802046FFF7A7FF00487047C0
:1003D0000400002001491820ABBEFEE72600020001
:1003E0007047D0F8003412F0010F14BF0B438B4359
:1003F000C0F8003412F0020FD0F8202414BF1143CB
:1004000022EA0101C0F8201470472DE9F007012706
:100410004FF0000C0326C2F3411800F6C47407FA2B
:100420000CF50D4210D0D0F8C49F4FEA4C0506FAE7
:1004300005FA29EA0A09C4F80090D4F8009008FAED
:1004400005F549EA050525600CF1010C0CF0FF0CDF
:10045000BCF1080FE3D3D0F800C512F0010F14BFB0
:100460004CEA010C2CEA010CC0F800C5D0F804C518
:1004700012F0020F14BF4CEA010C2CEA010CC0F878
:1004800004C5D0F808C512F0040F14BF4CEA010CE3
:100490002CEA010CC0F808C5D0F818C512F0080FF6
:1004A00014BF4CEA010C2CEA010CC0F818C512F07C
:1004B000100FD0F83C2514BF0A438A43C0F83C25EE
:1004C000D0F80C2513F0010F14BF0A438A43C0F87B
:1004D0000C25D0F8102513F0020F14BF0A438A43ED
:1004E000C0F81025D0F8142513F0040F14BF0A43E8
:1004F0008A43C0F81425D0F81C2513F0080F14BF48
:100500000A438A43C0F81C25D0F8442513F4007F21
:1005100014BF0A438A43C0F84425D0F8402513F499
:10052000407F14BF0A438A43C0F84025D0F82825ED
:10053000002B0CBF114322EA0101C0F82815BDE8C9
:10054000F007704730B50C46054608230122FFF737
:100550005CFF21462846BDE830400122FFF741BF3D
:1005600040F82120704700001649042804BF08689D
:1005700040F4803018D0052804BF086840F40030EB
:1005800012D0062812D00F2815D0102838BF704777
:10059000103800F01F01012202FA01F142090A4855
:1005A00050F822000160704708607047086840F406
:1005B0008020086070474FF0E020016941F002019F
:1005C0000161704724ED00E0F00A000010B5FFF76C
:1005D000B6FE002818BF012010BD000010B50B4862
:1005E00000F080F90A480B490860081D006840F0D7
:1005F0000100091D086071210748FFF7A3FF0022D1
:1006000071210548FFF7ACFF10BD0000050800F0A0
:100610004B434F4C205502400050024010B5024859
:1006200000F0D0F810BD00004005C00010B50D4826
:1006300000F058F922210C4800F088F90B4AFF21FC
:10064000094800F0C0F92320FFF78EFF012106487A
:1006500000F0B5F9FFF7BAFFFF21034800F0A6F953
:1006600010BD0000000400F00000034080F0FA021A
:1006700070B44B4D2A6E296F11F0004F14BF01F07A
:10068000700002F03000202808BF464818D005DC72
:1006900088B1102808BF444812D009E0302808BFAC
:1006A00047F230500CD0702808BF4FF4004007D0FC
:1006B00070BC002070477C203C4B00EA1210185898
:1006C0004FF0FF3311F0004F02D011F4006F06D04D
:1006D00001F0004C02F400645CEA040C36D1D5F859
:1006E00060C1D5F8644104F01F06761CC4F30424ED
:1006F000641C16FB04F46400B0FBF4F0CCF30904B2
:100700004443CCF3892C00FB0CF0D5F810C004EB6B
:10071000902042F480020CF4704CBCF5804F08BF6E
:10072000234B13D009DCBCF5005F08BF214B0DD073
:10073000BCF5405F08BF204B08E0BCF5E04F08BFA8
:100740001E4B03D0BCF5104F08BF1D4B12F4800F99
:1007500021D011F0004F19D011F0804F09D011F4C1
:10076000006F0CD001F0004C02F400625CEA02025F
:1007700005D0C1F3C551491CB0FBF1F00BE04000BE
:10078000C1F38651491CB0FBF1F004E0C2F3C35140
:10079000491CB0FBF1F0834238BF184670BC70476B
:1007A00000E00F4000093D000024F400480B000069
:1007B000005A620200B4C40480F0FA0240787D015D
:1007C000002D3101434B30B4196E1A6F21F48001B2
:1007D00041F4006142F4006419661C6721EA0002DA
:1007E00012F0010F14D060F0010211409A159A65C1
:1007F0001966D3F850C0D2021CF4807F08D1521E73
:1008000004BF30BC7047D3F850C01CF4807FF6D0D2
:1008100021F4FE6100F4FE621143DFF8BCC024F055
:10082000700222F0004200EA0C0C4CEA020200F0D6
:10083000080C42EACC0219661A6700F4005C21F445
:10084000005122F400524CEA01014CEA02024FF03E
:10085000400CC3F858C012F0004F08BF19661A6761
:1008600018BF196621F00101DFF870C021F0F861AE
:1008700000EA0C0C4CEA010122F0FC5200F0FC5C96
:100880004CEA020210F0804F08BF22F0804209D0EB
:10089000DFF84CC022F4800200EA0C0C41F4800125
:1008A0004CEA020210F4006F08BF4FF400400AD176
:1008B000D3F868C11CF0010F01D1401EF8D121F41A
:1008C000006122F4006219661A6730BC1020FFF73D
:1008D0002BBD000000E00F40300000800100C00789
:1008E00000004040C0F307230749C0B2194401F09B
:1008F0007043C1F3130143EA411141EA800040F023
:10090000007001220260704700E60F4010B501211F
:100910000B4800F052F80B480078C04309490870B2
:100920000846007828B1012211460748FFF718FE53
:1009300004E0002201210448FFF712FE10BD000070
:1009400000000340000000200050024010B4C268C4
:1009500022F0010222F48072C2600A0E0260114A83
:100960001268114B02EA030CACF18054CBB2C1F314
:100970000722B4F520240DD14FF4704C0CEA111469
:10098000234343F4007343600CEA1121114341F403
:10099000007104E043F40071416042F40071816031
:1009A00010BC704700E00F400000FF70C26840F2CA
:1009B000011319401143C160704741627047826959
:1009C00011438161704711F0FF0F18BF826211F46B
:1009D0007F4F18BFC262704770B50446FFF748FEEC
:1009E0004FF47A61B0FBF1F000FB04F52846FFF705
:1009F0009BFC70BDFFF712FEFFF7F0FDFFF716FE40
:100A00000FE0402211460748FFF7AAFDC820FFF774
:100A1000E3FF002240210348FFF7A2FDC820FFF7B3
:100A2000DBFFEEE7005002404FF04070E1EE100AAD
:100A300070470000000700000006000000050000ED
:100A4000000400000003000000020000000100009C
:100A5000000000000000000018ED00E01CED00E0C8
:100A600020ED00E000E400E004E400E008E400E041
:100A70000CE400E010E400E014E400E018E400E01E
:100A80001CE400E020E400E024E400E028E400E0CE
:100A90002CE400E030E400E034E400E038E400E07E
:100AA0003CE400E040E400E044E400E048E400E02E
:100AB0004CE400E050E400E054E400E058E400E0DE
:100AC0005CE400E060E400E064E400E068E400E08E
:100AD0006CE400E070E400E074E400E078E400E03E
:100AE0007CE400E080E400E084E400E088E400E0EE
:100AF00000E100E004E100E008E100E00CE100E0DA
:100B000010E100E080E100E084E100E088E100E045
:100B10008CE100E090E100E000E200E004E200E0AF
:100B200008E200E00CE200E010E200E080E200E019
:100B300084E200E088E200E08CE200E090E200E085
:100B400000D0121300389C1C40420F0000201C00F3
:100B500080841E0000802500999E360000403800E9
:100B600000093D0000803E0000004B00404B4C005F
:100B700000204E00808D5B0000C05D000080700092
:100B800000127A0000007D0080969800001BB700DC
:100B90000080BB00C0E8CE00647ADA000024F400D4
:100BA0000000FA0080A81201002D310100366E010C
:100BB00040787D0140000000000000003E00080079
:100BC00000000000A00000000200000034540100FA
:100BD000000000002B70060000000000280000004C
:100BE00000000000270001000000000020000000BD
:100BF0000000000050000000020000001AAC0000DD
:100C0000000000001794090000000000169805007D
:100C10000000000014000000000000001380080025
:100C200000000000A000000008000000100000000C
:100C3000000000002800000002000000400000004A
:100C40000400000060000000000000005D000C00D7
:100C50000000000050000000000000004E000200F4
:100C60000000000041AC0100000000003C0000005A
:100C7000000000003A800900000000003000000081
:100C80000000000028000000000000002700010014
:100C90000000000023600600000000002160080042
:100CA000000000001E000000000000001DC0040045
:100CB00000000000500000000200000018000000CA
:100CC00000000000140000000000000060000000B0
:100CD000040000000024F40030003000005A6202DA
:100CE0009100910000879303D200D20000B4C404A5
:100CF0001301130100E1F50554015401000E27070B
:100D000095019501240D0000000000200400000062
:100D1000C4020000280D000004000020640100004F
:080D2000E002000000000000E9
:04000005000002896C
:00000001FF
