:020000040000FA
:10000000800100206D0200008102000083020000D8
:10001000850200008502000085020000000000004B
:100020000000000000000000000000008502000049
:10003000850200000000000085020000850200002B
:1000400085020000250400008502000085020000F2
:100050008502000085020000850200008502000084
:100060008502000085020000850200008502000074
:100070008502000085020000850200008502000064
:100080008502000085020000850200009510000036
:100090008502000085020000850200008502000044
:1000A0008502000085020000850200008502000034
:1000B0008502000085020000850200008502000024
:1000C0008502000085020000850200008502000014
:1000D0008502000085020000850200008502000004
:1000E0008502000000000000000000008502000002
:1000F00085020000850200008502000085020000E4
:1001000085020000850200008502000085020000D3
:1001100000000000000000008502000085020000D1
:1001200085020000850200008502000085020000B3
:1001300085020000850200008502000085020000A3
:1001400000000000000000000000000000000000AF
:100150008502000085020000850200008502000083
:10016000000000000000000000000000000000008F
:10017000000000000000000000000000000000007F
:10018000000000000000000000000000000000006F
:10019000000000000000000000000000000000005F
:1001A000000000000000000000000000000000004F
:1001B0008502000085020000850200008502000023
:1001C0008502000085020000850200008502000013
:1001D0008502000085020000850200008502000003
:1001E00085020000850200008502000085020000F3
:1001F00085020000850200008502000085020000E3
:100200008502000085020000850200000000000059
:1002100085020000850200008502000085020000C2
:1002200085020000850200008502000085020000B2
:1002300085020000850200008502000085020000A2
:100240008502000085020000850200008502000092
:100250008502000085020000850200008502000082
:100260008502000085020000850200004EF68850DD
:10027000CEF20000016841F47001016000F004B8A2
:10028000FEE7FEE7FEE7000000F002F800F03CF8B1
:100290000AA090E8000C82448344AAF10107DA45E1
:1002A00001D100F031F8AFF2090EBAE80F0013F0F7
:1002B000010F18BFFB1A43F001031847F029000093
:1002C000102A0000103A24BF78C878C1FAD8520723
:1002D00024BF30C830C144BF04680C6070470000C0
:1002E0000023002400250026103A28BF78C1FBD83F
:1002F000520728BF30C148BF0B6070471FB500F0E0
:1003000087FF1FBD10B510BD00F058F81146FFF76C
:10031000F5FF00F025FF00F076F803B4FFF7F2FFD9
:1003200003BC00F077F80000EFF3108072B670475E
:10033000EFF310807047EFF3108062B6704730BF64
:10034000704780F311887047EFF311807047000009
:100350000138FDD17047000002480349014A034BB0
:1003600070470000800000208001002080000020F5
:1003700010B5431C02E010F8011B71B18107FAD1DE
:100380004FF0013202C88C1A8C4314EAC211F9D022
:10039000C01A0A0603D0C01E10BDC01A10BD0A0440
:1003A00001D0801E10BD0902FCD0401E10BD704758
:1003B00070477047004870471C0000207546FFF7E3
:1003C000F9FFAE4605006946534620F00700854612
:1003D00018B020B5FFF7C0FFBDE820404FF0000681
:1003E0004FF000074FF000084FF0000B21F007011D
:1003F000AC46ACE8C009ACE8C009ACE8C009ACE860
:10040000C0098D4670470446AFF300802046FFF7D1
:1004100084FF000001491820ABBEFEE72600020061
:100420007047000010B52021294800F022F920284B
:1004300001D1012000E00020002844D125480078A7
:10044000401C2449087008460078012814DB08463F
:100450000078082810DC2048007840101E490870F9
:1004600010211B4800F005F9102805D11A48007822
:1004700040F0800018490870164800780B2822DBED
:1004800000201449087015480078022804D1002083
:1004900012490870104908701048007801280BD1E3
:1004A0000D4800780E4948700120087000200A4964
:1004B000087002200949087007480078E02802D136
:1004C0000120064908701021014800F024F810BDF1
:1004D0000070024001000020020000200300002004
:1004E0000400002002F001031BB1D0F800340B43DC
:1004F00002E0D0F800348B43C0F8003402F002036D
:100500001BB1D0F820340B4302E0D0F820348B43E9
:10051000C0F820347047C0F81C147047F0B50024B0
:1005200016E00125A5400D4085B1D0F8C45F6700F5
:100530000326BE40B543C0F8C45FD0F8C45F67006F
:10054000C2F34116BE403543C0F8C45F651CECB22F
:10055000082CE6DB02F001051DB1D0F800550D4373
:1005600002E0D0F800558D43C0F8005502F00205B6
:100570001DB1D0F804550D4302E0D0F804558D4369
:10058000C0F8045502F004051DB1D0F808550D431C
:1005900002E0D0F808558D43C0F8085502F0080570
:1005A0001DB1D0F818550D4302E0D0F818558D4311
:1005B000C0F8185502F010051DB1D0F83C550D4398
:1005C00002E0D0F83C558D43C0F83C5503F00105DE
:1005D0001DB1D0F80C550D4302E0D0F80C558D43F9
:1005E000C0F80C5503F002051DB1D0F810550D43AD
:1005F00002E0D0F810558D43C0F8105503F0040503
:100600001DB1D0F814550D4302E0D0F814558D43B8
:10061000C0F8145503F008051DB1D0F81C550D4362
:1006200002E0D0F81C558D43C0F81C5503F400754A
:100630001DB1D0F844550D4302E0D0F844558D4328
:10064000C0F8445503F440751DB1D0F840550D4332
:1006500002E0D0F840558D43C0F840551BB9D0F8A2
:1006600028550D4302E0D0F828558D43C0F8285591
:10067000F0BD0246002000EB81001058704730B5F5
:1006800004460D460823012229462046FFF746FF6F
:10069000012229462046FFF725FF30BD002303EB4A
:1006A0008103C2507047000010B50B4800F06AFA91
:1006B0000A480B490860081D006840F00100091D48
:1006C000086071210748FFF7DAFF00227121054811
:1006D000FFF7E4FF10BD0000050800F04B434F4C4E
:1006E0002055024000500240042806D119490968EB
:1006F00041F48031174A11602BE0052806D11549D5
:10070000096841F40031134A116022E0062806D13D
:100710001049096841F480210E4A116019E00F2840
:1007200008D14FF0E021096941F002014FF0E022C9
:1007300011610EE010280CD3A0F1100101F01F028E
:1007400001219140A0F110025209034B53F82220DD
:100750001160704724ED00E0982A000010B5FFF703
:10076000EAFD08B1012010BD0020FCE72DE9F84F9B
:1007700080460E4617461C46B3462046E31704EB58
:100780005373DB1021464FEAE47C04EB5C7C4FEAB8
:10079000EC0CA4EBCC0CBCF1000F02D04FF0010C20
:1007A00001E04FF0000C6344224604EBD27C4FEA98
:1007B0006C0C03FB0CF3DBB20093A7F12000C7B273
:1007C00000254DE00C2C07D107EB4700274901EB32
:1007D000800010F8059013E0102C05D1244800EBA0
:1007E000071010F805900BE0182C07D107EBC70095
:1007F000204901EB800010F8059001E0BDE8F88F7A
:100800004FF0000A26E009F0800028B11A4802885B
:100810003146404600F09EFB4FEA49604FEA1069BE
:10082000701C86B215484088B04200DCE6E7A6EBB3
:100830000B00A0420AD15E4608F101001FFA80F8C1
:100840000E480088404500DCD8E706E00AF10100C8
:1008500000F0FF0ABAF1080FD5DB00BF681CC5B273
:1008600000988542AEDB00BFC8E700001A12000006
:100870008E1600007E1C0000080000200C000020E6
:100880002DE9F04704460D4690469946DDE9086794
:1008900004F0FF0A08EB04001FFA80F809EB0500DA
:1008A0001FFA80F914E0444502DB5446A81985B2CA
:1008B0004D4500DB12E03A78334629462046FFF7E3
:1008C00055FF304606EBD07104EB61018CB27F1C02
:1008D00038787E2802DC38782028E4DA00BFBDE8CA
:1008E000F0872DE9FC4106460F4614461D4620467A
:1008F000FFF73EFD68431FFA80F82B464246394613
:100900003046CDE90054FFF7BBFFBDE8FC81000095
:1009100070B44B4D2A6E296F11F0004F14BF01F0D7
:10092000700002F03000202808BF464818D005DCCF
:1009300088B1102808BF444812D009E0302808BF09
:1009400047F230500CD0702808BF4FF4004007D059
:1009500070BC002070477C203C4B00EA12101858F5
:100960004FF0FF3311F0004F02D011F4006F06D0AA
:1009700001F0004C02F400645CEA040C36D1D5F8B6
:1009800060C1D5F8644104F01F06761CC4F304244A
:10099000641C16FB04F46400B0FBF4F0CCF309040F
:1009A0004443CCF3892C00FB0CF0D5F810C004EBC9
:1009B000902042F480020CF4704CBCF5804F08BFCC
:1009C000234B13D009DCBCF5005F08BF214B0DD0D1
:1009D000BCF5405F08BF204B08E0BCF5E04F08BF06
:1009E0001E4B03D0BCF5104F08BF1D4B12F4800FF7
:1009F00021D011F0004F19D011F0804F09D011F41F
:100A0000006F0CD001F0004C02F400625CEA0202BC
:100A100005D0C1F3C551491CB0FBF1F00BE040001B
:100A2000C1F38651491CB0FBF1F004E0C2F3C3519D
:100A3000491CB0FBF1F0834238BF184670BC7047C8
:100A400000E00F4000093D000024F400F02A0000FF
:100A5000005A620200B4C40480F0FA0240787D01BA
:100A6000002D3101434B30B4196E1A6F21F480010F
:100A700041F4006142F4006419661C6721EA000237
:100A800012F0010F14D060F0010211409A159A651E
:100A90001966D3F850C0D2021CF4807F08D1521ED0
:100AA00004BF30BC7047D3F850C01CF4807FF6D030
:100AB00021F4FE6100F4FE621143DFF8BCC024F0B3
:100AC000700222F0004200EA0C0C4CEA020200F034
:100AD000080C42EACC0219661A6700F4005C21F4A3
:100AE000005122F400524CEA01014CEA02024FF09C
:100AF000400CC3F858C012F0004F08BF19661A67BF
:100B000018BF196621F00101DFF870C021F0F8610B
:100B100000EA0C0C4CEA010122F0FC5200F0FC5CF3
:100B20004CEA020210F0804F08BF22F0804209D048
:100B3000DFF84CC022F4800200EA0C0C41F4800182
:100B40004CEA020210F4006F08BF4FF400400AD1D3
:100B5000D3F868C11CF0010F01D1401EF8D121F477
:100B6000006122F4006219661A6730BC1020FFF79A
:100B7000EFBB000000E00F40300000800100C00724
:100B800000004040C0F307230749C0B2194401F0F8
:100B90007043C1F3130143EA411141EA800040F080
:100BA000007001220260704700E60F4010B5024855
:100BB000FFF758FF10BD00004005C00070B50646A5
:100BC0000F484088401E83B20D480088401E82B204
:100BD0000021084600F00EFA00240CE0002504E095
:100BE000304600F00FF8681C85B205484088A842DE
:100BF000F6DC601C84B202480088A042EEDC70BDC6
:100C00000C00002010B50446042211461148FFF7DD
:100C100045FD002208210F48FFF740FD2212FF2169
:100C20000D48FFF73BFDE2B2FF214FF04020FFF7F8
:100C300035FD002202210748FFF730FD0222114650
:100C40000448FFF72BFD082211460248FFF726FD56
:100C500010BD0000004002400070004010B51B486D
:100C6000FFF790FF0F211A48FFF709FD00220F211F
:100C70001748FFF713FD1548001DFFF783FF0421F8
:100C80001448FFF7FCFC002204211248FFF706FD80
:100C90000E48001FFFF776FFFF214FF04020FFF7BF
:100CA000EEFC0022FF214FF04020FFF7F7FC074841
:100CB000401EFFF767FFFF210748FFF7E0FC002217
:100CC000FF210548FFF7EAFC10BD0000040800F012
:100CD0000040024000D003400070004010B5FFF714
:100CE000BDFF012211468E48FFF7D8FCCF2000F04F
:100CF00043F90020FFF786FFC120FFF783FF302074
:100D0000FFF780FFED2000F037F96420FFF77AFF4E
:100D10000320FFF777FF1220FFF774FF8120FFF712
:100D200071FFE82000F028F98520FFF76BFF102005
:100D3000FFF768FF7A20FFF765FFCB2000F01CF972
:100D40003920FFF75FFF2C20FFF75CFF0020FFF743
:100D500059FF3420FFF756FF0220FFF753FFF7201B
:100D600000F00AF92020FFF74DFFEA2000F004F917
:100D70000020FFF747FF0020FFF744FFC02000F0EE
:100D8000FBF81B20FFF73EFFC12000F0F5F8012023
:100D9000FFF738FFC52000F0EFF83020FFF732FFF3
:100DA0003020FFF72FFFC72000F0E6F8B720FFF74D
:100DB00029FF362000F0E0F84820FFF723FF3A2013
:100DC00000F0DAF85520FFF71DFFB12000F0D4F84D
:100DD0000020FFF717FF1A20FFF714FFB62000F0DE
:100DE000CBF80A20FFF70EFFA220FFF70BFFF2203F
:100DF00000F0C2F80020FFF705FF262000F0BCF845
:100E00000120FFF7FFFEE02000F0B6F80F20FFF70B
:100E1000F9FE2A20FFF7F6FE2820FFF7F3FE082050
:100E2000FFF7F0FE0E20FFF7EDFE0820FFF7EAFEC9
:100E30005420FFF7E7FEA920FFF7E4FE4320FFF769
:100E4000E1FE0A20FFF7DEFE0F20FFF7DBFE0020A9
:100E5000FFF7D8FE0020FFF7D5FE0020FFF7D2FEF7
:100E60000020FFF7CFFEE12000F086F80020FFF71A
:100E7000C9FE1520FFF7C6FE1720FFF7C3FE0720A7
:100E8000FFF7C0FE1120FFF7BDFE0620FFF7BAFEF8
:100E90002B20FFF7B7FE5620FFF7B4FE3C20FFF7EC
:100EA000B1FE0520FFF7AEFE1020FFF7ABFE0F20CE
:100EB000FFF7A8FE3F20FFF7A5FE3F20FFF7A2FEA9
:100EC0000F20FFF79FFE2B2000F056F80020FFF7C1
:100ED00099FE0020FFF796FE0120FFF793FE3F20CA
:100EE000FFF790FE2A2000F047F80020FFF78AFE67
:100EF0000020FFF787FE0020FFF784FEEF20FFF7BA
:100F000081FE112000F038F8292000F035F800F0BB
:100F10000BF8042211460348FFF7C0FB10BD000088
:100F20000040024000D0034010B52C200849088141
:100F3000012088714FF4A0700880F02048802A209A
:100F400048812B2088816C21362000F041F810BDAB
:100F50000C00002070B504460D4616462B4622466E
:100F60002946204600F046F802480088FFF74AFE6E
:100F700070BD00000800002010B5044600220421C6
:100F80001148FFF78BFB002208210F48FFF786FB73
:100F90002212FF210D48FFF781FBE2B2FF214FF043
:100FA0004020FFF77BFB002202210748FFF776FB7A
:100FB000022211460448FFF771FB0822114602483D
:100FC000FFF76CFB10BD00000040024000700040C5
:100FD00070B505460C462846FFF7CEFF2046FFF7C2
:100FE00011FE70BD10B502490889FFF7C5FF10BD9D
:100FF0000C0000202DE9F04104460D4616461F4620
:1010000011494889FFF7B8FF2012FFF7FBFDE0B256
:10101000FFF7F8FD3012FFF7F5FDF0B2FFF7F2FD34
:1010200009498889FFF7A8FF2812FFF7EBFDE8B20E
:10103000FFF7E8FD3812FFF7E5FDF8B2FFF7E2FD34
:10104000FFF7D0FFBDE8F0810C00002010B50F487D
:10105000FFF798FD22210E4800F03CF8FFF758FCFE
:101060000621B0FBF1F42246FF21094800F06FF899
:101070002320FFF739FB0121054800F064F8FFF752
:101080006DFBFF21024800F055F810BD000400F090
:101090000000034010B501210B4800F052F80B4846
:1010A0000078C043094908700846007828B1012239
:1010B00011460748FFF7F2FA04E000220121044834
:1010C000FFF7ECFA10BD0000000003400000002014
:1010D00000500240C26840F201139A43C2600A0EF7
:1010E0000260114A1268114B1A40114B9A4211D1F9
:1010F000CAB201F4702342EA131242F40072426051
:1011000001F47002C1F3072343EA122242F4007291
:10111000826008E0CAB242F400724260C1F3072262
:1011200042F400728260704700E00F400000FF70E0
:1011300000000A10C26840F201130B401A43C2605B
:1011400070474162704782690A4382617047CBB23F
:1011500003B1826201F47F4303B1C26270470000B1
:10116000FFF724FDFFF7A0FAFFF770FFFFF7B6FDCA
:101170000020FFF723FD4FF6FF70114908801DE0A6
:101180000C2310A219461846FFF7ABFB10230FA241
:1011900032211846FFF7A5FB18230FA26421142063
:1011A000FFF79FFB18230FA296216420FFF799FBFE
:1011B00010230FA2C8212820FFF793FBE0E70000CF
:1011C0000800002048656C6C6F00000054465420F5
:1011D000494C4939333431003031323334353637C4
:1011E0003839000058696559757368656E000000EC
:1011F00028432920434F5059524947485420323000
:1012000031362057696E64526973657300000000BF
:101210004FF04070E1EE100A70470000000000003F
:10122000000000000000000000003F40000000003F
:1012300000000000300040003000400000000900C5
:101240000BC03D000BC03D00090018C024407FE0EA
:10125000224031800000180024C01B000D80324065
:10126000018003801C4027401C8007400040100084
:10127000600000000000000000000000000000000E
:101280001F80204040200000402020401F800000A0
:101290000000090006001F8006000900000004008D
:1012A00004003F8004000400000000100060000003
:1012B000000000000000040004000400040004001A
:1012C00000000000004000000000000000000020BE
:1012D00001C006003800400000001F802040204070
:1012E00020401F800000000010403FC00040000070
:1012F000000018C021402240244018400000108007
:101300002040244024401B80000002000D001100FA
:101310003FC0014000003C80244024402440238002
:1013200000001F802440244034400380000030002F
:10133000200027C03800200000001B8024402440EB
:1013400024401B8000001C0022C0224022401F803D
:101350000000000000000840000000000000000045
:1013600000000460000000000000000004000A000B
:10137000110020804040090009000900090009000F
:10138000000000004040208011000A000400180006
:10139000200023402400180000001F802040274028
:1013A00029401F400000004007C039000F0001C065
:1013B000004020403FC0244024401B8000001F808C
:1013C0002040204020403080000020403FC020408E
:1013D00020401F80000020403FC024402E4030C0ED
:1013E000000020403FC024402E00300000000F00CD
:1013F0001080204022403380020020403FC0040083
:1014000004003FC02040204020403FC020402040FA
:1014100000000060202020203FC02000200020404D
:101420003FC024400B0030C0204020403FC020403F
:101430000040004000C03FC03C0003C03C003FC033
:10144000000020403FC00C4023003FC020001F8010
:101450002040204020401F80000020403FC024400A
:101460002400180000001F802140214020E01FA020
:10147000000020403FC02440260019C0004018C092
:1014800024402440224031800000300020403FC0F2
:1014900020403000000020003F80004000403F809E
:1014A000200020003E0001C0070038002000380066
:1014B00007C03C0007C038000000204039C00600CB
:1014C00039C0204000002000384007C038402000CC
:1014D0000000304021C02640384020C000000000FD
:1014E00000007FE0402040200000000070000C0061
:1014F0000380004000000000402040207FE000000A
:10150000000000002000400020000000000000104B
:10151000001000100010001000100000000040003B
:10152000000000000000000002800540054003C0EC
:10153000004020003FC00440044003800000000041
:101540000380044004400640000000000380044083
:1015500024403FC000400000038005400540034098
:101560000000000004401FC0244024402000000070
:1015700002E0055005500650042020403FC00440C2
:10158000040003C000400000044027C000400000E9
:10159000000000100010041027E0000000002040B0
:1015A0003FC00140070004C00440204020403FC02D
:1015B00000400040000007C0040007C0040003C052
:1015C0000000044007C00440040003C000400000C5
:1015D00003800440044003800000041007F004501E
:1015E000044003800000000003800440045007F022
:1015F0000010044007C00240040004000000000086
:1016000006400540054004C00000000004001F80A3
:10161000044000400000040007800040044007C070
:1016200000400400070004C001800600040006001A
:1016300001C0070001C006000000044006C0010010
:1016400006C0044000000410071004E001800600FA
:1016500004000000044005C00640044000000000F3
:10166000000004007BE040200000000000000000BB
:10167000FFF000000000000040207BE004000000BC
:1016800000004000800040002000200040000000DA
:10169000000000000000000000000000000000004A
:1016A000000000001FCC000C000000000000000043
:1016B00008003000600008003000600000000220D8
:1016C00003FC1E20022003FC1E200220000000005C
:1016D0000E1811043FFF10840C78000000000F006A
:1016E00010840F3800C00778188400780000007854
:1016F0000F8410C411240E9800E400840008080030
:101700006800700000000000000000000000000001
:101710000000000007E0181820044002000000004C
:1017200040022004181807E00000000000000240FA
:10173000024001800FF00180024002400000008062
:10174000008000800FF80080008000800000000111
:10175000000D000E0000000000000000000000006E
:1017600000800080008000800080008000800000F9
:10177000000C000C00000000000000000000000051
:10178000000600180060018006001800200000001C
:1017900007F0080810041004080807F00000000013
:1017A000080408041FFC00040004000000000000FE
:1017B0000E0C10141024104411840E0C00000000B4
:1017C0000C1810041104110412880C7000000000A1
:1017D00000E00320042408241FFC00240000000073
:1017E0001F9810841104110410881070000000006C
:1017F00007F0088811041104188800700000000028
:101800001C00100010FC13001C0010000000000061
:101810000E3811441084108411440E38000000006A
:101820000700088C10441044088807F000000000EE
:1018300000000000030C030C00000000000000008A
:101840000000000101060000000000000000000090
:10185000008001400220041008081004000002204B
:1018600002200220022002200220022000000000AC
:10187000100408080410022001400080000000004D
:101880000E001200100C106C10800F00000003E01E
:101890000C1813E4142417C4082807D0000000040F
:1018A000003C03C41C40074000E4001C000410047A
:1018B0001FFC1104110411040E880070000003E0E5
:1018C0000C1810041004100410081C100000100460
:1018D0001FFC100410041004080807F00000100496
:1018E0001FFC1104110417C4100408180000100490
:1018F0001FFC1104110017C010000800000003E0D5
:101900000C181004100410441C780040000010044F
:101910001FFC10840080008010841FFC1004000055
:10192000100410041FFC1004100400000000000349
:101930000001100110011FFE100010000000100433
:101940001FFC110403801464181C10040000100410
:101950001FFC1004000400040004000C000010042C
:101960001FFC1F0000FC1F001FFC100400001004DF
:101970001FFC0C04030000E010181FFC100007F00F
:101980000808100410041004080807F000001004F0
:101990001FFC10841080108010800F00000007F0E2
:1019A000081810241024101C080A07F20000100464
:1019B0001FFC1104110011C011300E0C00040000B6
:1019C0000E1C11041084108410441C3800001800F0
:1019D000100010041FFC100410001800000010007C
:1019E0001FF810040004000410041FF81000100079
:1019F0001E0011E0001C007013801C0010001FC0AE
:101A0000103C00E01F0000E0103C1FC0000010046C
:101A1000180C163401C001C01634180C1004100044
:101A20001C00130400FC13041C0010000000080438
:101A3000101C1064108413041C0410180000000013
:101A4000000000007FFE4002400240020000000053
:101A500030000C0003800060001C00030000000048
:101A60004002400240027FFE000000000000000033
:101A70000000200040004000400020000000000165
:101A8000000100010001000100010001000100004F
:101A900040004000200000000000000000000000A6
:101AA0000098012401440144014400FC000410009A
:101AB0001FFC008801040104008800700000000081
:101AC0000070008801040104010400880000000087
:101AD000007000880104010411081FFC00040000CC
:101AE00000F8014401440144014400C80000000022
:101AF000010401040FFC110411041100180000007E
:101B000000D601290129012901C90106000010049C
:101B10001FFC008401000100010400FC000400001F
:101B20000104190419FC0004000400000000000076
:101B3000000300010101190119FE0000000010045A
:101B40001FFC0024004001B4010C0104000000004F
:101B5000100410041FFC0004000400000000010435
:101B600001FC0104010001FC0104010000FC01046E
:101B700001FC008401000100010400FC00040000DD
:101B800000F8010401040104010400F8000001014F
:101B900001FF0085010401040088007000000000BE
:101BA0000070008801040104010501FF0001010427
:101BB000010401FC00840104010001800000000018
:101BC00000CC01240124012401240198000000001C
:101BD0000100010007F801040104000000000100F9
:101BE00001F8000400040004010801FC00040100E5
:101BF00001800170000C001001600180010001F003
:101C0000010C003001C00030010C01F001000000A7
:101C10000104018C00740170018C010400000101B9
:101C200001810171000E00180160018001000000B7
:101C30000184010C013401440184010C0000000006
:101C400000000000000001003EFC400240020000D5
:101C5000000000000000FFFF000000000000000086
:101C6000400240023EFC01000000000000000000B5
:101C70006000800080004000400020002000000044
:101C80000000000000000000000000000000000054
:101C90000000000000000000000000000000000044
:101CA0000000000000000000000000000000000034
:101CB000000F80380FFE380F803800000000000051
:101CC000000000000000000000000000010000060D
:101CD00000000C00003800003100000600000C007D
:101CE00000380000300000000000000000006180AB
:101CF0000067F807F9800061800061800061800062
:101D000061800067F807F980006180000000000032
:101D10000000000001C0E003E0F0063008041808ED
:101D20001FFFFE040E080787F00381E0000000009B
:101D3000000001F000060C00040408060C7001F914
:101D4000C0000E00003BE000EC18070808040C1867
:101D50000003E00000000001E00007F003F81804B1
:101D60001C0804170807E1D003C0E00023B0003CC2
:101D70000800200800001000000000000001000022
:101D80003100003200001C000000000000000000D4
:101D90000000000000000000000000000000000043
:101DA00000000000000000000000000000007F00B4
:101DB00001FFC00780F00C00181000042000020092
:101DC00000000000002000021000040C0018078032
:101DD000F001FFC0007F00000000000000000000D4
:101DE000000000000000000000004200006600004B
:101DF0006600003C0000180003FFC0001800003C13
:101E000000006600006600004200000000000800BC
:101E100000080000080000080000080001FFC000E2
:101E2000080000080000080000080000080000008A
:101E30000000000100003100003200001C00000022
:101E40000000000000000000000000000000000092
:101E50000000000000000800000800000800000862
:101E6000000008000008000008000008000008004A
:101E70000008000000000000000000000000380022
:101E800000380000380000000000000000000000E2
:101E9000000000000000000000000000000000063C
:101EA00000001C000070000180000E0000380000DF
:101EB000C0000700001C000030000000000000000F
:101EC00000007F8001FFE003807006001804000816
:101ED00004000806001803807001FFE0007F800006
:101EE00000000000000000000100080100080100DF
:101EF0000803FFF807FFF8000008000008000008CA
:101F000000000000000000000001C03802C05804BA
:101F10000098040118040218040418061C1803F899
:101F20001801E0F800000000000000000001C0E01F
:101F300003C0F00400080408080408080618080391
:101F4000F41801E7F00001E00000000000000000CC
:101F500000000300000D0000110000610000810876
:101F600003010807FFF80FFFF8000108000108004F
:101F700000000000000000E007FCD0060808061082
:101F800008061008061008061838060FF00607C0E5
:101F9000000000000000000000003F8001FFE0039F
:101FA00084300208180410080410080410080718E8
:101FB00010030FF00007C000000000000000000048
:101FC00003C0000700000600000600F80607F80638
:101FD000180006E0000700000600000000000000F6
:101FE0000001E1E003F7F0063410041808041808B3
:101FF000040C08040C0806161803F3F001C1E000F5
:10200000000000000000F80003FC30030638040262
:10201000080402080402080404100308F001FFC0C9
:10202000007F000000000000000000000000000031
:1020300000000000000070380070380070380000A8
:102040000000000000000000000000000000000090
:1020500000000000000000000000301A00301C00EA
:102060000000000000000000000000000000000070
:1020700000000000000800001400002200004100E1
:1020800000808001004002002004001008000800C9
:1020900000000000000021000021000021000021BC
:1020A000000021000021000021000021000021008B
:1020B00000210000000000000000000008000804EB
:1020C000001002002001004000808000410000223A
:1020D0000000140000080000000000000003C00021
:1020E00004C000040000080038080F380808380849
:1020F00010000C300007E00003C0000000000000EA
:1021000000003F8000FFE0038070020F100670881F
:1021100004C088048308047F8802C0900301200063
:10212000FE400000080000180001F8003E0801C24F
:102130000007020007E20000FE00001FC80001F8CF
:1021400000003800000804000807FFF807FFF80443
:10215000080804080804080804080806180803F416
:102160001801E7F00001E0000000000000003F80DF
:1021700001FFE00380700200180400080400080456
:1021800000080400100600200780C00000000400C2
:102190000807FFF807FFF804000804000804000817
:1021A00004001802001003807001FFE0007F80002F
:1021B000000004000807FFF807FFF80408080408F7
:1021C00008040808040808043E080400080600186B
:1021D00001006000000004000807FFF807FFF80492
:1021E0000808040800040800040800043E00060073
:1021F00000060000018000000000000000003F8099
:1022000001FFE003807006001804000804020804BF
:1022100002080203F00783F000020000020004003D
:102220000807FFF807FFF804080800080000080086
:1022300000080000080004080807FFF807FFF8047A
:10224000000800000000000004000804000804006A
:102250000807FFF807FFF804000804000804000856
:102260000000000000000000000000060000070061
:10227000000104000104000104000307FFFE07FF42
:10228000FC04000004000004000004000807FFF83C
:1022900007FFF8040C08001800003E0004C7800582
:1022A00003C80600F8040038040018000008040001
:1022B0000807FFF807FFF8040008000008000008FE
:1022C000000008000008000008000018000060007E
:1022D000000004000807FFF807800807FC00007FE3
:1022E000C00003F80007C000780007800807FFF867
:1022F00007FFF804000804000807FFF807000803B8
:10230000C00000E000003800001E000007000001CF
:10231000C00400F007FFF8040000000000007F8008
:1023200001FFE0038070060018040008040008069E
:10233000001803003001FFE0007F8000000004006F
:102340000807FFF807FFF804040804040004040069
:10235000040400040400060C0003F80001F000006F
:102360000000000000007F8001FFE0038070060095
:10237000880400880400C806003C03003E01FFE614
:10238000007F8400000004000807FFF807FFF8043E
:102390000808040800040C00040F00040BC0061019
:1023A000F003F03801E00800000800000001E0F848
:1023B00003F030063010041808041808040C080450
:1023C0000C080206180207F00781E00000000180F7
:1023D0000006000004000004000004000807FFF8E5
:1023E00007FFF804000804000004000006000001D4
:1023F000800004000007FFE007FFF0040018000061
:102400000800000800000800000800000804001090
:1024100007FFE004000004000006000007E00007DA
:10242000FE00041FE00001F80000380001E0043E57
:102430000007C00006000004000004000007E000E0
:1024400007FFC0041FF80007C007F80007FF80045B
:102450003FF80007C004F800070000040000000077
:102460000004000806001807C07805F1C8003E0007
:10247000001F800463E80780F806001804000800C5
:10248000000004000006000007800007E008047C4C
:1024900008001FF80007F800180804E0080700000B
:1024A00006000004000000000001000806003804D7
:1024B00000F80403E8040F08047C0805F00807C0CE
:1024C0000807001804006000000000000000000081
:1024D0000000000000000000003FFFFE200002207E
:1024E0000002200002200002200002000000000084
:1024F0000000000008000007000000C000003800D5
:102500000006000001C000003000000E00000100C5
:102510000000000000000000200002200002200057
:10252000022000022000023FFFFE00000000000029
:102530000000000000000000000000000000000893
:1025400000001000003000002000003000001000EB
:102550000008000000000000000000000100000171
:102560000000010000010000010000010000010066
:102570000001000001000001000001000001000056
:1025800000000000000000200000200000100000FB
:10259000100000000000000000000000000000002B
:1025A00000000000000000F00019F8001B180022D5
:1025B00008002608002408002410003FF8001FF837
:1025C00000000800001800000004000007FFF80FDA
:1025D000FFF0001818001008002008002008003044
:1025E00018001FF0000FC00000000000000007C02E
:1025F000001FF0001830002008002008002008000C
:102600003C08001C100000600000000000000000FA
:10261000000007C0001FF000381800200800200844
:1026200000200804101007FFF80FFFF00000100052
:1026300000000000000000000007C0001FF00012B2
:1026400030002218002208002208003208001E1064
:10265000000E200000000000000020000020080004
:10266000200801FFF803FFF80620080420080420D2
:102670000807200003000000000000000000000E1A
:10268000000E6E001FF30031B10020B10020B10038
:102690003191001F13002E1E00200E00300000009C
:1026A0000004000807FFF80FFFF8001008002000E2
:1026B000002000002008003FF8001FF8000008007C
:1026C000000000000000000000200800200800209A
:1026D00008063FF8063FF800000800000800000860
:1026E00000000000000000000000000000000300E7
:1026F0000003002001002001002003063FFE063FEA
:10270000FC000000000000000000000000040008C1
:1027100007FFF80FFFF8000188000300002FC0003A
:1027200038F80020380020080000080000000000F1
:102730000000000004000804000804000807FFF877
:102740000FFFF8000008000008000008000000006B
:102750000000002008003FF8003FF80010080020AB
:1027600000003FF8003FF8001008002000003FF88C
:10277000003FF8000008000000002008003FF800BB
:102780003FF8001008001000002000002008003F63
:10279000F8001FF80000080000000000000007C05B
:1027A000000FF0001830003008002008002008005A
:1027B0003008001830000FF00007C00000000000D3
:1027C00000002001003FFF003FFF00101100200922
:1027D000002008002008003038001FF0000FC00063
:1027E00000000000000007C0001FF00038180020A3
:1027F00008002008002009001011001FFF003FFF03
:10280000000001000000002008002008002008004F
:102810003FF8003FF80008080010080020080020DA
:102820000000300000300000000000000000000048
:10283000000C78001E18003308002308002108004F
:1028400021880021980030F000386000000000006E
:102850000000200000200000200000FFF003FFF82F
:1028600000200800200800200800003000000000C0
:102870000000000000002000003FF0007FF8000092
:1028800018000008000008002010003FF8007FF04A
:1028900000001000000000000000200000300000D8
:1028A0003C00003F800023F000007800007000230F
:1028B00080003C00003000002000002000003C00B0
:1028C000003FE00023F80000E0002700003E000089
:1028D0003FE00021F80001E0003E00002000000081
:1028E00000002008002008003838003E68002780DB
:1028F0000003C8002CF80038380020180020080019
:102900000000000000002000003003003C01003FF8
:10291000830023EC000070002380003C00002000B6
:102920000020000000000000000000000038080047
:1029300020380020F80023E8002F88003E080038E7
:1029400008002018000070000000000000000000D7
:102950000000000000000000000008000014001F3C
:10296000F7FC30000620000200000000000000001C
:102970000000000000000000000000000000000057
:10298000FFFFFF000000000000000000000000004A
:1029900000000000000000002000023000061FF7C9
:1029A000FC0014000008000000000000000000000F
:1029B000000000000000000000180000600000405F
:1029C000000040000020000010000008000004008B
:1029D000000400000C0000100000000000070000D0
:1029E00000060000000500000004000000030000D5
:1029F00000020000000100000000000000000000D4
:102A000018ED00E01CED00E020ED00E000E400E047
:102A100004E400E008E400E00CE400E010E400E07E
:102A200014E400E018E400E01CE400E020E400E02E
:102A300024E400E028E400E02CE400E030E400E0DE
:102A400034E400E038E400E03CE400E040E400E08E
:102A500044E400E048E400E04CE400E050E400E03E
:102A600054E400E058E400E05CE400E060E400E0EE
:102A700064E400E068E400E06CE400E070E400E09E
:102A800074E400E078E400E07CE400E080E400E04E
:102A900084E400E088E400E000E100E004E100E01C
:102AA00008E100E00CE100E010E100E080E100E07E
:102AB00084E100E088E100E08CE100E090E100E0EA
:102AC00000E200E004E200E008E200E00CE200E0E6
:102AD00010E200E080E200E084E200E088E200E052
:102AE0008CE200E090E200E000D0121300389C1C61
:102AF00040420F0000201C0080841E000080250042
:102B0000999E36000040380000093D0000803E00DC
:102B100000004B00404B4C0000204E00808D5B00BD
:102B200000C05D000080700000127A0000007D008F
:102B300080969800001BB7000080BB00C0E8CE0064
:102B4000647ADA000024F4000000FA0080A8120180
:102B5000002D310100366E0140787D0140000000FB
:102B6000000000003E00080000000000A00000007F
:102B70000200000034540100000000002B70060029
:102B800000000000280000000000000027000100F5
:102B900000000000200000000000000050000000C5
:102BA000020000001AAC00000000000017940900A9
:102BB000000000001698050000000000140000004E
:102BC000000000001380080000000000A0000000CA
:102BD00008000000100000000000000028000000B5
:102BE000020000004000000004000000600000003F
:102BF000000000005D000C0000000000500000001C
:102C0000000000004E0002000000000041AC010086
:102C1000000000003C000000000000003A800900B5
:102C2000000000003000000000000000280000004C
:102C300000000000270001000000000023600600E3
:102C40000000000021600800000000001E000000DD
:102C5000000000001DC00400000000005000000043
:102C60000200000018000000000000001400000036
:102C70000000000060000000040000000024F400D8
:102C800030003000005A62029100910000879303E7
:102C9000D200D20000B4C4041301130100E1F50511
:102CA00054015401000E270795019501CC2C00001A
:102CB000000000200C000000C4020000D82C00001E
:102CC0000C00002074010000E00200000000000081
:082CD000000000000000FFFFFE
:04000005000002896C
:00000001FF
