:020000040000FA
:10000000680100206D0200008102000083020000F0
:10001000850200008502000085020000000000004B
:100020000000000000000000000000008502000049
:10003000850200000000000085020000850200002B
:100040008502000085020000850200008502000094
:100050008502000085020000F50C0000850200000A
:100060008502000085020000850200008502000074
:100070008502000085020000850200008502000064
:10008000850200008502000085020000290C0000A6
:100090008502000085020000850200008502000044
:1000A0008502000085020000850200008502000034
:1000B0008502000085020000850200008502000024
:1000C0008502000085020000850200008502000014
:1000D0008502000085020000850200008502000004
:1000E0008502000000000000000000008502000002
:1000F00085020000850200008502000085020000E4
:1001000085020000850200008502000085020000D3
:1001100000000000000000008502000085020000D1
:1001200085020000850200008502000085020000B3
:1001300085020000850200008502000085020000A3
:1001400000000000000000000000000000000000AF
:100150008502000085020000850200008502000083
:10016000000000000000000000000000000000008F
:10017000000000000000000000000000000000007F
:10018000000000000000000000000000000000006F
:10019000000000000000000000000000000000005F
:1001A000000000000000000000000000000000004F
:1001B0008502000085020000850200008502000023
:1001C0008502000085020000850200008502000013
:1001D0008502000085020000850200008502000003
:1001E00085020000850200008502000085020000F3
:1001F00085020000850200008502000085020000E3
:100200008502000085020000850200000000000059
:1002100085020000850200008502000085020000C2
:1002200085020000850200008502000085020000B2
:1002300085020000850200008502000085020000A2
:100240008502000085020000850200008502000092
:100250008502000085020000850200008502000082
:100260008502000085020000850200004EF68850DD
:10027000CEF20000016841F47001016000F004B8A2
:10028000FEE7FEE7FEE7000000F002F800F03CF8B1
:100290000AA090E8000C82448344AAF10107DA45E1
:1002A00001D100F031F8AFF2090EBAE80F0013F0F7
:1002B000010F18BFFB1A43F0010318474C10000050
:1002C0006C100000103A24BF78C878C1FAD85207E1
:1002D00024BF30C830C144BF04680C6070470000C0
:1002E0000023002400250026103A28BF78C1FBD83F
:1002F000520728BF30C148BF0B6070471FB500F0E0
:100300008DFD1FBD10B510BD00F03AF81146FFF786
:10031000F5FF00F05BFD00F058F803B4FFF7F2FFC3
:1003200003BC00F059F800000138FDD1704700000F
:10033000EFF3108072B67047EFF310807047EFF361
:10034000108062B6704730BF704780F311887047E5
:10035000EFF311807047000002480349014A034B44
:10036000704700006800002068010020680000203D
:100370007047704770470000004870470400002035
:100380007546FFF7F9FFAE4605006946534620F073
:100390000700854618B020B5FFF7DEFFBDE8204016
:1003A0004FF000064FF000074FF000084FF0000B31
:1003B00021F00701AC46ACE8C009ACE8C009ACE8E4
:1003C000C009ACE8C0098D4670470446AFF3008011
:1003D0002046FFF7A2FF000001491820ABBEFEE750
:1003E00026000200704770B505460E461446314699
:1003F000284600F0B7F903E014F8010B00F026FAE4
:1004000020780028F8D170BDD0F8003412F0010F28
:1004100014BF0B438B43C0F8003412F0020FD0F826
:10042000202414BF114322EA0101C0F820147047B0
:100430002DE9F00701274FF0000C0326C2F3411805
:1004400000F6C47407FA0CF50D4210D0D0F8C49F22
:100450004FEA4C0506FA05FA29EA0A09C4F80090A1
:10046000D4F8009008FA05F549EA050525600CF175
:10047000010C0CF0FF0CBCF1080FE3D3D0F800C561
:1004800012F0010F14BF4CEA010C2CEA010CC0F869
:1004900000C5D0F804C512F0020F14BF4CEA010CDD
:1004A0002CEA010CC0F804C5D0F808C512F0040FFE
:1004B00014BF4CEA010C2CEA010CC0F808C5D0F8B6
:1004C00018C512F0080F14BF4CEA010C2CEA010CFD
:1004D000C0F818C512F0100FD0F83C2514BF0A431D
:1004E0008A43C0F83C25D0F80C2513F0010F14BF47
:1004F0000A438A43C0F80C25D0F8102513F0020FE8
:1005000014BF0A438A43C0F81025D0F8142513F00D
:10051000040F14BF0A438A43C0F81425D0F81C25E1
:1005200013F0080F14BF0A438A43C0F81C25D0F803
:10053000442513F4007F14BF0A438A43C0F84425BE
:10054000D0F8402513F4407F14BF0A438A43C0F813
:100550004025D0F82825002B0CBF114322EA0101C9
:10056000C0F82815BDE8F007704700000F4AC0F337
:100570000741D26E01238B401A420D4A1ABF02EB8B
:10058000C1014A6852F83120C0F3072102F22C530E
:10059000D2F82C254FF00F0C0CFA01FC00F00F00E4
:1005A00022EA0C02884010431860704700E00F40B8
:1005B000A80F000030B50C46054608230122FFF7BE
:1005C00037FF21462846BDE830400122FFF71CBF17
:1005D00030B50C4605460222FFF716FF2146284695
:1005E000BDE8304008230122FFF722BF40F8212058
:1005F000704700001649042804BF086840F48030A2
:1006000018D0052804BF086840F4003012D006282E
:1006100012D00F2815D0102838BF7047103800F0BE
:100620001F01012202FA01F142090A4850F8220092
:100630000160704708607047086840F480200860D7
:1006400070474FF0E020016941F0020101617047FD
:1006500024ED00E0F410000010B5FFF770FE002854
:1006600018BF012010BD000010B5164800F0C8FAF0
:100670001448401D00F0C4FA40211348FFF79AFFC8
:1006800001211248FFF796FF08211048FFF792FF5B
:100690004FF4FA7000F08AFB302000F0B5F8022029
:1006A00000F0B2F80C2000F0AFF8062000F0ACF833
:1006B000012000F0A9F8802000F0A6F80A2000F040
:1006C00066FB10BD020800F00060004000700240B0
:1006D0002DE9FC478046894615461E4600242F46D4
:1006E00000BF0A20B7FBF0F7601CC4B2002FF8D19E
:1006F000A64208DD00BF601CC4B22020311B0DF8EB
:100700000100B442F7D100200DF804002021601E42
:10071000C0B204460DF8001000BF0A20B5FBF0F18E
:1007200000FB115030302146621ED4B20DF801009A
:100730000A20B5FBF0F5002DEFD16A464946404648
:10074000FFF751FEBDE8FC872DE9F04104460D4658
:1007500016461F463B46324621462846FFF7B8FF5D
:10076000BDE8F08170B505460E4606F18000C4B2C2
:1007700035B1012D05D0022D07D0032D0DD108E094
:100780000CE004F11000C4B208E004F10800C4B2A7
:1007900004E004F11800C4B200E000BF00BF20462E
:1007A00000F032F870BD000070B5054600241BE073
:1007B00005FA04F000F0800028B1FF2208210C485F
:1007C000FFF714FF04E0002208210948FFF70EFF9D
:1007D000002201210648FFF709FFFF2201210448FA
:1007E000FFF704FF601CC4B2082CE1DB70BD000001
:1007F0000070024070B504460D461646324621464A
:100800002846FFF7F0FD70BD10B50446FF224021D9
:100810000D48FFF7EBFEF820FFF7C6FF04F0F000ED
:10082000FFF7C2FFF02101EA0410FFF7BDFF4B20E4
:1008300000F0BCFA002240210348FFF7D7FE4B200E
:1008400000F0B4FA10BD00000060004010B504468E
:10085000FF2240210D48FFF7C9FEFA20FFF7A4FF51
:1008600004F0F000FFF7A0FFF02101EA0410FFF709
:100870009BFF4B2000F09AFA002240210348FFF72B
:10088000B5FE4B2000F092FA10BD00000060004061
:1008900010B50B4800F0B4F90A480B490860081D70
:1008A000006840F00100091D086071210748FFF74A
:1008B00081FE002271210548FFF798FE10BD00005F
:1008C000050800F04B434F4C2055024000500240B9
:1008D00010B5144800F094F9134800F091F94FF066
:1008E0000110FFF743FE1148FFF740FE03211048B7
:1008F000FFF76EFE00F04AF8044660234FF41652EC
:1009000021460C4800F008FA0A48C06A20F010009E
:100910000849C8621021074800F035FA1620FFF791
:1009200069FE10BD011800F0010800F0010401008B
:100930000050004000D0004010B5024800F0D0F850
:1009400010BD00004005C00010B50D4800F058F97A
:1009500022210C4800F088F90B4AFF21094800F0D9
:10096000C0F92320FFF746FE0121064800F0B5F943
:10097000FFF772FEFF21034800F0A6F910BD00004A
:10098000000400F00000034080F0FA0270B44B4D08
:100990002A6E296F11F0004F14BF01F0700002F0B1
:1009A0003000202808BF464818D005DC88B1102840
:1009B00008BF444812D009E0302808BF47F2305041
:1009C0000CD0702808BF4FF4004007D070BC002046
:1009D00070477C203C4B00EA121018584FF0FF3350
:1009E00011F0004F02D011F4006F06D001F0004C5E
:1009F00002F400645CEA040C36D1D5F860C1D5F885
:100A0000644104F01F06761CC4F30424641C16FB26
:100A100004F46400B0FBF4F0CCF309044443CCF3D9
:100A2000892C00FB0CF0D5F810C004EB902042F4A8
:100A300080020CF4704CBCF5804F08BF234B13D0E0
:100A400009DCBCF5005F08BF214B0DD0BCF5405F51
:100A500008BF204B08E0BCF5E04F08BF1E4B03D099
:100A6000BCF5104F08BF1D4B12F4800F21D011F0C0
:100A7000004F19D011F0804F09D011F4006F0CD045
:100A800001F0004C02F400625CEA020205D0C1F3FE
:100A9000C551491CB0FBF1F00BE04000C1F3865199
:100AA000491CB0FBF1F004E0C2F3C351491CB0FB98
:100AB000F1F0834238BF184670BC704700E00F4029
:100AC00000093D000024F4004C110000005A6202AD
:100AD00000B4C40480F0FA0240787D01002D310199
:100AE000434B30B4196E1A6F21F4800141F4006158
:100AF00042F4006419661C6721EA000212F0010F3B
:100B000014D060F0010211409A159A651966D3F865
:100B100050C0D2021CF4807F08D1521E04BF30BCEA
:100B20007047D3F850C01CF4807FF6D021F4FE61EA
:100B300000F4FE621143DFF8BCC024F0700222F022
:100B4000004200EA0C0C4CEA020200F0080C42EAF7
:100B5000CC0219661A6700F4005C21F4005122F4FB
:100B600000524CEA01014CEA02024FF0400CC3F87B
:100B700058C012F0004F08BF19661A6718BF1966EF
:100B800021F00101DFF870C021F0F86100EA0C0CDF
:100B90004CEA010122F0FC5200F0FC5C4CEA02023B
:100BA00010F0804F08BF22F0804209D0DFF84CC01F
:100BB00022F4800200EA0C0C41F480014CEA0202AB
:100BC00010F4006F08BF4FF400400AD1D3F868C199
:100BD0001CF0010F01D1401EF8D121F4006122F474
:100BE000006219661A6730BC1020FFF79DBB000039
:100BF00000E00F40300000800100C00700004040CE
:100C0000C0F307230749C0B2194401F07043C1F390
:100C1000130143EA411141EA800040F000700122D3
:100C20000260704700E60F4010B501210B4800F04C
:100C300052F80B480078C04309490870084600780C
:100C400028B1012211460748FFF7D0FC04E000223A
:100C500001210448FFF7CAFC10BD0000000003405A
:100C6000000000200050024010B4C26822F00102CF
:100C700022F48072C2600A0E0260114A1268114B9F
:100C800002EA030CACF18054CBB2C1F30722B4F5F5
:100C900020240DD14FF4704C0CEA1114234343F47B
:100CA000007343600CEA1121114341F4007104E028
:100CB00043F40071416042F40071816010BC7047E0
:100CC00000E00F400000FF70C26840F201131940BD
:100CD0001143C1607047416270478269114381616D
:100CE000704711F0FF0F18BF826211F47F4F18BFD9
:100CF000C262704710B5034800F008F80249487016
:100D000010BD000000D0004001000020816911F0FA
:100D1000100FFBD100687047D0F818C01CF0080F06
:100D2000FAD1D0F82CC02CF0100CC0F82CC0D0F8A0
:100D300030C02CF0010C2CF4407CC0F830C0D0F84E
:100D400030C0B1EB021F34BF4CF0200C2CF0200C53
:100D5000C0F830C038BF5208C900B1FBF2F1491CDD
:100D600049088A09426201F03F018162C3620021A1
:100D70008161C16A41F01001C162016B40F2013230
:100D8000114301637047826B11438163704770B5F3
:100D90000446FFF7FBFD4FF47A61B0FBF1F000FB76
:100DA00004F52846FFF7C0FA70BD000070B5044690
:100DB000FFF7ECFD0449B0FBF1F000FB04F5284619
:100DC000FFF7B2FA70BD000000093D00FFF7B4FD67
:100DD000FFF75EFDFFF7B8FDFFF746FCFFF778FD74
:100DE0000AA200210846FFF705FD0DE00A484278F7
:100DF000052301210020FFF7A7FC074802780523FF
:100E000002210020FFF7A0FCF0E70000A1F8A1F705
:100E1000A1EEBAD9BAD90000010000204FF040700D
:100E2000E1EE100A70470000004000401000000092
:100E3000008005401000000000500040110000003C
:100E4000009005401100000000600040120000000A
:100E500000A00540120000000070004013000000D8
:100E600000B00540130000000040024014000000E4
:100E700000C0054014000000005002402E00000099
:100E800000D005402E000000006002402F0000004E
:100E900000E005402F00000000700240300000001C
:100EA00000F005403000000000D003404600000084
:100EB0000000064046000000001006404700000009
:100EC0000020064048000000003006407F0000007F
:100ED00000400640800000000050064084000000F2
:100EE000006006408C000000004000401000000040
:100EF000008005401000000000500040110000007C
:100F00000090054011000000006000401200000049
:100F100000A0054012000000007000401300000017
:100F200000B0054013000000004002401400000023
:100F300000C0054014000000005002402E000000D8
:100F400000D005402E000000006002402F0000008D
:100F500000E005402F00000000700240300000005B
:100F600000F005403000000000D0034043000000C6
:100F7000000006404300000000100640440000004E
:100F800000200640450000000030064058000000E8
:100F90000040064059000000005006405C00000080
:100FA00000600640640000000040004000800540F2
:100FB00000500040009005400060004000A0054047
:100FC0000070004000B005400040024000C00540F5
:100FD0000050024000D005400060024000E00540A3
:100FE0000070024000F0054000D0034000000640C1
:100FF0000010064000100640002006400020064079
:1010000000300640003006400040064000400640E8
:101010000050064000500640006006400060064058
:1010200000700640007006400080064000800640C8
:1010300000900640009006400007000000060000F7
:101040000005000000040000000300000002000092
:1010500000010000000000000000000018ED00E0AA
:101060001CED00E020ED00E000E400E004E400E01E
:1010700008E400E00CE400E010E400E014E400E028
:1010800018E400E01CE400E020E400E024E400E0D8
:1010900028E400E02CE400E030E400E034E400E088
:1010A00038E400E03CE400E040E400E044E400E038
:1010B00048E400E04CE400E050E400E054E400E0E8
:1010C00058E400E05CE400E060E400E064E400E098
:1010D00068E400E06CE400E070E400E074E400E048
:1010E00078E400E07CE400E080E400E084E400E0F8
:1010F00088E400E000E100E004E100E008E100E055
:101100000CE100E010E100E080E100E084E100E0BB
:1011100088E100E08CE100E090E100E000E200E026
:1011200004E200E008E200E00CE200E010E200E08F
:1011300080E200E084E200E088E200E08CE200E08F
:1011400090E200E000D0121300389C1C40420F00D7
:1011500000201C0080841E0000802500999E36001F
:101160000040380000093D0000803E0000004B00B8
:10117000404B4C0000204E00808D5B0000C05D00A5
:101180000080700000127A0000007D0080969800B8
:10119000001BB7000080BB00C0E8CE00647ADA0014
:1011A0000024F4000000FA0080A81201002D310193
:1011B00000366E0140787D01400000000000000014
:1011C0003E00080000000000A00000000200000037
:1011D00034540100000000002B70060000000000E5
:1011E00028000000000000002700010000000000AF
:1011F000200000000000000050000000020000007D
:101200001AAC000000000000179409000000000064
:101210001698050000000000140000000000000007
:101220001380080000000000A0000000080000007B
:101230001000000000000000280000000200000074
:1012400040000000040000006000000000000000FA
:101250005D000C00000000005000000000000000D5
:101260004E0002000000000041AC01000000000040
:101270003C000000000000003A800900000000006F
:101280003000000000000000280000000000000006
:10129000270001000000000023600600000000009D
:1012A00021600800000000001E0000000000000097
:1012B0001DC00400000000005000000002000000FB
:1012C00018000000000000001400000000000000F2
:1012D00060000000040000000024F4003000300032
:1012E000005A62029100910000879303D200D2005D
:1012F00000B4C4041301130100E1F50554015401C5
:10130000000E27079501950128130000000000201A
:1013100004000000C40200002C13000004000020A0
:0C13200064010000E00200000000FF007B
:04000005000002896C
:00000001FF
